:020000041000EA
:1000000000B5324B212058609868022188439860DF
:10001000D860186158612E4B002199600221596106
:100020000121F02299502B49196001219960352056
:1000300000F044F80222904214D00621196600F024
:1000400034F8196E01211966002018661A6600F04E
:100050002CF8196E196E196E052000F02FF8012189
:100060000842F9D1002199601B49196000215960AB
:100070001A491B48016001219960EB211966A021F2
:10008000196600F012F800219960164914480160C1
:100090000121996001BC002800D000471248134993
:1000A000086003C880F30888084703B5996A0420EC
:1000B0000142FBD001200142F8D103BD02B5186610
:1000C0001866FFF7F2FF186E186E02BD00000240BE
:1000D000000000180000070000035F00212200005C
:1000E000F4000018222000A00001001008ED00E03C
:1000F00000000000000000000000000074B24E7A12
:1001000000200420F7010010CB010010CD010010E9
:10011000C9010010C9010010C9010010C901001077
:10012000C9010010C9010010C9010010CF01001061
:10013000C9010010C9010010D1010010D301001045
:10014000C1010010C1010010C1010010C101001067
:10015000C1010010C1010010C1010010C101001057
:10016000C1010010C1010010C1010010C101001047
:10017000C1010010C1010010C1010010C101001037
:10018000C1010010C1010010C1010010C101001027
:10019000C1010010C1010010C1010010C101001017
:1001A000C1010010C1010010C1010010C101001007
:1001B000C1010010C1010010C1010010C1010010F7
:1001C000EFF30580103800BE00BE00BE00BE00BECA
:1001D00000BE00BEF2EB88714C4600107046001065
:1001E0003802001090A31AE71E481F49086006C88D
:1001F00081F3088810471D480068002801D019487D
:10020000F3E70DA40ECC002902D000F012F8F9E7B4
:100210001749184A002000E001C19142FCD116495B
:100220008847164988471649884700BEFDE701C937
:1002300001C29A42FBD3704770460010C0000020F4
:100240008410002034560010000004200000042018
:10025000345600100010042000100420000000009C
:10026000704700000000000008ED00E0000000D032
:1002700084100020401D0020A1230010290400103C
:1002800099230010F8B5C046044B10B5002B03D0DD
:100290000349044800E000BF10BDC0460000000054
:1002A000F41C00201843001010B5192000F0E0F9EC
:1002B000D024802324069B0463620220A36100F003
:1002C000D7F904231D206362A36100F0D1F98023D4
:1002D0009B056362A36110BDF0B5C64600B54D49EC
:1002E0008AB04D4803F0C8FD06210600102000F03A
:1002F000A5F901231022002100934748F51C03F0C3
:1003000037FE2D03F3011D43444B02AF1D408023F4
:100310005B02029380239B05FB60414B0520BB6081
:100320007D6001F0DDFA3F4901F0ACFC01F088FF8F
:10033000EC21890501F066FF804601F0A9FF84B237
:100340000023002C0ED0200001F07AFF011C404653
:1003500001F055FF8721C90501F06BFF01F098FFFF
:10036000C3B21B0224041C433B00012702942A4C05
:1003700032000021200003F055FE236806213B4394
:100380002360162000F05AF916220097012101235C
:10039000200003F0EDFD80235B02069380239B0584
:1003A00009931F4B05200893079501F099FA1D4901
:1003B00001F068FC01F044FFEC21890501F022FF07
:1003C000051C01F065FF84B206AF0023002C0ED09F
:1003D000200001F035FF011C281C01F010FF8721CF
:1003E000C90501F026FF01F053FFC3B21B0224042C
:1003F0001C430694084C3B0032000121200003F00E
:1004000011FE02222368134323600AB080BCB84661
:10041000F0BDC0461843001000002050FFFFFF9FB2
:100420000000067000127A00F0B5D6464F464646E8
:10043000C0B584B003F0E2FC0021002003F078FB9B
:10044000FFF732FFFFF748FFD02380221B069204FC
:100450009A6104229A61802292059A618022504911
:1004600052024B68180010401342FAD180220861F2
:100470004B4992024B681E0016401342FAD10023EA
:100480009A469946474B012598464E610120002126
:10049000404202F009FC01F057F800294CD0FA2242
:1004A0000023920001F02CFC0400002003F078F9F6
:1004B000071E3DD0A31B632B15D9002D42D000236E
:1004C000002202930193009300210020013303F0E6
:1004D00083F901235D404346FA221B682600E31A94
:1004E0005200934239D24B46002B21D05346E41A96
:1004F0004F2C1DD9D02380221B0692049A6104221E
:100500009A61802292059A618022254952024B68A5
:10051000180010401342FAD180220861204992024B
:100520004B68180010401342FAD1002399464861E5
:10053000012000F0F3FEA9E7FA21890001F0A2FBF7
:100540000400B2E7012300220021029501950095E5
:100550005B42002003F040F9BBE7434680221C6069
:10056000D02392041B065A6104225A618022802102
:1005700092055A610A4A490253680B42FCD1A023F2
:1005800080219B051361064A890253680B42FCD106
:10059000A0239B05B946A24626005361C8E7C04682
:1005A00000002050E81C00207047C0460020704723
:1005B00000487047D444001000487047844400103D
:1005C000004870476044001070B5002823D003280D
:1005D0002CD8174B8000C558280003F091FDC0B2FD
:1005E000041C1F2812D8E4B2002808D00023114AA6
:1005F000E95C01331180D9B202328C42F8D8C022B2
:100600000134E3B25B00920013430CE01F24E4B218
:100610000028EBD1F3E7064B02221968054801F0E8
:1006200093FEC1239B000448038070BD0020FCE7BB
:10063000A00F0020FA150020F8150020094A8300B9
:100640009A1810B514684022544080322240064C5B
:10065000C000A44663441A60044B9C466044416059
:1006600010BDC04604C0014004D00140004001401C
:100670000123D0228340120693629361094A8300CA
:100680009A1811684022514080320A400649C00041
:100690008C4663441A60054B9C46052360444360C6
:1006A0007047C04604C0014004D0014000400140F2
:1006B0008023DB051868000F7047C0460FB400B5F3
:1006C000084883B001F0C2FF049B002B07D005A9A6
:1006D0001800019101F046FE034801F0B7FF012028
:1006E00001F058FE5C4300106C430010EFF31080E3
:1006F00072B6034A1368002BFCD0BFF35F8F7047BC
:100700002C0100D0BFF35F8F0022024B1A6080F3F0
:10071000108870472C0100D070B5EFF3108C72B6C2
:100720000D4D2B68002BFCD0BFF35F8F0724CB0847
:10073000C618C05C01230C40A3401C0004400342C7
:1007400007D118433070BFF35F8F2C608CF3108893
:1007500070BD1000FFF7B2FF2C0100D0F8B547467E
:10076000CE46884680B5EFF3108C72B61C4D2C68CF
:10077000002CFCD0BFF35F8F9A4222D807210126BC
:10078000894602E00132934218D34D4637001540A6
:10079000AF40D4080119045D2742F3D110003C4357
:1007A0000C70BFF35F8F00220D4B1A608CF3108822
:1007B00000280EDBC0BCB946B046F8BD012040425F
:1007C000EFE7BFF35F8F00232B608CF310880120CD
:1007D00040424346002BEDD00898FFF76FFFC0461C
:1007E0002C0100D0044A1078431CDBB2172B00D92F
:1007F000102313707047C046B00F002010B5064B91
:10080000064C82B00100009318221F232000FFF73E
:10081000A5FF02B010BDC04670430010AC18002008
:100820000021044B044ABFF35F8F02C39342FAD105
:100830007047C046000100D0800100D0054B064A39
:100840001360064A136053609360D3601361536171
:10085000936170478080808000E400E004E400E061
:100860001F2318401E3B8340002905D0C021044AA5
:100870004900535013607047802201498B50FAE7BA
:1008800000E100E070B50D00EFF3108672B60F4A7C
:100890001368002BFCD0BFF35F8F0D4B10309B68AB
:1008A00084001B590B4A934203D09D4201D001F0B2
:1008B000BFF8074B9B681D51BFF35F8FBFF35F8F7E
:1008C0000022024B1A6086F3108870BD240100D00C
:1008D00000ED00E0C1010010F0B557464E46DE467F
:1008E0004546E0B585B0060000911700EFF3108B88
:1008F00072B66A4A1368002BFCD0BFF35F8F0025E5
:10090000674B5D579A46002D00DAA9E06B00654CF5
:1009100001935B199B009846A146C1444B46524641
:100920009B7910361370604BB6009B6899590B1B6E
:100930002F2B33D95D4B994200D0ACE0019B42464E
:100940009C465B4B6544AD0063535A4B0232A21880
:10095000043B9B1A1B05584A5B0D651913436B80BA
:10096000564B0121AB80FF23AB71009BEF71AB6055
:100970004B460B4319004C4B9B689951BFF35F8F5B
:10098000BFF35F8F0022454B1A608BF3108805B0D0
:10099000F0BCBB46B246A946A046F0BD01200A0005
:1009A0008243D3798C46BB4231D845461300444933
:1009B0001B1B5B415943090D3D4B63533D4B0235B6
:1009C0006519043B5B1B1B053B4D5B0D2B43AA4686
:1009D0004D466B800425AC465546E044131F444405
:1009E0001B1B1B055B0D1D434B46997100999D8098
:1009F00099604946DF71334B01431360BBE75800F0
:100A0000C01880002018C179B9422FD902000623EE
:100A1000D356002BF3DA02932B4B61460393131D3D
:100A20009A4604235B429C46E14450464B461B1ABF
:100A30001B055B0D9C46204B9571984663464046CE
:100A400003439380019B5A199200039BA418A3802F
:100A5000029B1C4AA371009B2260E771A3608AE796
:100A600000F0E6FF002553465D574FE7908802935C
:100A70004005131D9A46031561469C464046D444E2
:100A8000634604302018181AE0230005400D1B02AD
:100A900018430390C5E700F0CBFF4FE7240100D0D7
:100AA0003C1D0020B40F002000ED00E0C10100104B
:100AB00000A1FFFFE40F002000E0FFFF01BDFFFFEA
:100AC000AAAA00000148804701BD0000F0B5DE463B
:100AD00057464E464546E0B50C0083B0EFF310880C
:100AE00072B6634A1368002BFCD0BFF35F8F614B73
:100AF00061499A68030010339F00D55901938D42D4
:100B000043D0A54254D05D4EAA1B2F2A3DD85C4B42
:100B10009B461B68994601231A009C4682404B461F
:100B200013401F2299466346024093409A46802212
:100B30005B4650469850BFF35F8FEFF305839B46AB
:100B4000002B37D0019B5B4501D000F071FF0123E2
:100B50002A009A439068844208D176E04B005B18E3
:100B60009B00F3189868844236D01A00062151562B
:100B70000029F3DA844254D04B46002B27D0C02200
:100B800051463F4B5200995019603A4B9B68DD51DA
:100B9000BFF35F8FBFF35F8F0022354B1A6088F37E
:100BA000108803B0F0BCBB46B246A946A046F0BDD3
:100BB0000D00EAE72A0063469A4390688442D5D143
:100BC00006201056130000280ADA0D0031E08023B9
:100BD00051462B4AD150D8E706201856002821DB71
:100BE00042001118890074188B46A1689960E17958
:100BF000D971062161569971002924DBA488F11A64
:100C0000640524155C44091909051E4C490D21434E
:100C1000998013181C4A9B001178F3189971107071
:100C2000AAE713005946002914D1FF3191711749E1
:100C3000918015490A789A71154A9B1B5B415A436A
:100C4000120D0A7098E71149E2E7062010561300CA
:100C50000028C5DA0F4A1049D21A083A5002400D4E
:100C6000014399800D4952080A43DA8084E7C0465F
:100C7000240100D000ED00E0C1010010B40F0020FD
:100C800000E100E000E0FFFF3C1D002001BDFFFF90
:100C9000AAAA0000EE0F002000F0FFFF00F8FFFFFF
:100CA00070B501240443EFF30581EFF3108C72B6A5
:100CB000214A1368002BFCD0BFF35F8F1F4B050048
:100CC0001F4AED1A6D416A43120D1E4D8900AE6830
:100CD00052B27658A6421CD00621595691421CD0D9
:100CE00012215956914222D01E215956914220D0AC
:100CF0002A2159560324914210D0134B19781A70A7
:100D00008171BFF35F8F00220B4B1A608CF3108848
:100D100070BDAB680D4C5C50EFE700246100091911
:100D200089005B18FF21997109499980E5E7012441
:100D3000F4E70224F2E7C046240100D0B40F0020FB
:100D4000AAAA000000ED00E03C1D0020C101001037
:100D500001BDFFFF024B9C46614489000160704762
:100D60004000003470B5114C114DAC420FD2FF263B
:100D70002368002B0CD0FFF735FD01002000FFF7A2
:100D8000E9FFA680BFF35F8F0834AC42F0D370BD9B
:100D9000FFF728FD01002000FFF7DCFF2671BFF3FD
:100DA0005F8F0834AC42E3D3F1E7C0467C100020EB
:100DB0008410002010B50400FFF714FD010020008E
:100DC000FFF7C8FFFF232371BFF35F8F10BDC0463D
:100DD00010B504000120FFF711FD034BC3189B0061
:100DE0002360BFF35F8F10BD400000340A4B1968C9
:100DF000EFF3108072B60A68002AFCD0BFF35F8F51
:100E00001B68BFF35F8F00221A6080F3108840BF19
:100E1000002000217047C046281D0020F0B5DE46A6
:100E200057464E464546E0B587B0EFF305830322AB
:100E300001251A40954091008846A946B34B03927C
:100E40005C58B34B1D60B34B04934B46B2484363AD
:100E50000823E55E002D37DAA3881BB2002B00DBE8
:100E6000ADE0A379002B00D0EEE00823E05E00287F
:100E700020DB430062691B18DB00D3189E68DD6825
:100E8000731C00D111E1A44801004144826A0B693E
:100E9000B71A9B1A9F4215D30123026A0398834015
:100EA0001A420FD09C4800F047FB8D4202DCCCD1A7
:100EB0008642CAD940BF07B0F0BCBB46B246A9467D
:100EC000A046F0BD0E61EDE762696B0092465B19CA
:100ED000DB009A4453469E68DF6800F02DFB8F428A
:100EE000BADC00D103E1002F00DAE8E052465346B5
:100EF00052691B699346049A934200D1D9E0524645
:100F00000821605E528800045946104398470090BB
:100F100001910099019A0B001000134300D1CEE01B
:100F200013000A00B61A9F41002806DB7A4800F039
:100F300003FB009E019F36184F4153469E60DF60C1
:100F400000229A5E002A00DA86E753009918606949
:100F5000C900411802938B68C9689B46B94200DDFD
:100F60007AE702D1B34200D976E708239C46A4442D
:100F7000059565462281A446029B2C0006E053009D
:100F80009918C90041188D68C968AB469B18DB00E9
:100F9000C318B94206DC00D1B3E01C000023E25EB6
:100FA000002AECDA230064469C4653461A806346C6
:100FB000059D1D80A3881BB2002B00DA51E7226932
:100FC000EFF3108172B61368002BFCD0BFF35F8F74
:100FD0000123A7885B42A3803FB22369BFF35F8FE1
:100FE00000221A6081F31088002F00DA39E723000D
:100FF000083322009A4666697B00DB19DB00F31890
:10100000996850468C460824115FDD68002910DB82
:10101000029306E0AB4244D00023E15E20000029A9
:1010200006DB4C006418E4003419E368AB42F1DDE0
:10103000029B078000201F5E1980002FDCDA14005D
:10104000A379002B00D110E70023A3712600082309
:10105000E15E08364B1C00D12CE70800A24665690A
:1010600002E03E004B1C1AD04B005B18DB00EF186F
:101070000A008C46E95E7B881BB2002BF1DA012363
:101080005B42DC17BB60FC60824205D05346318076
:101090001B893B8053461A8160464B1CE4D1544661
:1010A000E5E6A3686345B7D9C2E76B1C00D0EAE662
:1010B000F8E65B4658461B69984700281BD1534603
:1010C0001B8822692381EFF3108372B6116800290F
:1010D000FCD0BFF35F8F514662880A802269658029
:1010E000BFF35F8F0021116083F31088B4E686425E
:1010F00000D8F8E6B0E65B461A685B680092019398
:1011000007E7B34500D848E74CE7C0460C1D002070
:101110003C7005401D0E00100040054070B52E4C7F
:101120002569002D04D00A212C48FFF713FE70BD5D
:101130002B4E0321300000F0F5F9E660FFF752FB7B
:10114000284B03229C46D02322701B061B680121DA
:101150006370254B6044A3600F2380002061022050
:10116000638063694942A180198002311986473141
:101170001D83585218315A5275325C3999521832BF
:101180000131995218320131995218320131995274
:10119000083518329D5202311832995218320131F5
:1011A000995218320131995218320131995218323C
:1011B000013199521832013199520C4B0C49DC60C3
:1011C00001303562FFF75EFB01210320FFF748FB8A
:1011D000084B1D60A7E7C046FC0F0020281D00201B
:1011E0000040054040000034FFFF10000C1D0020AF
:1011F0001D0E00103860054070B501000469EFF362
:10120000108C72B620680028FCD0BFF35F8F0220DC
:101210000D5E4C6968004019C00024180869002D53
:1012200036DB26884E80BFF35F8F002606608CF386
:101230001088E36063880498013320615B0405989B
:101240005B0CA26060611A1C002B1FD093B22804B3
:10125000628018430A69EFF3108C72B61368002B92
:10126000FCD0BFF35F8F8B8823808D800B69BFF329
:101270005F8F00221A608CF310880B7801329A403D
:10128000CB6808498C4663441A6070BD0122DDE7D3
:10129000BFF35F8F002303608CF31088012040426E
:1012A000F3E7C0463C20000010B543890A1493427E
:1012B0001ADD53009B184269DB00D3180469EFF371
:1012C000108C72B62268002AFCD0BFF35F8F5A8858
:1012D000090494B2090C8A4208D00369BFF35F8FF6
:1012E00000221A608CF31088002010BD80221202A8
:1012F00014435C80012302698371BFF35F8F002177
:1013000011608CF31088044902788C469340C268BF
:10131000012062441360E8E73C200000F0B5C646B7
:1013200000B582B0040000F00FF9FA2206000F00A9
:10133000200000230021920000F044FF8019794131
:1013400004000D1E02DA01242E4D64420626764268
:10135000F71736196F41AF4214D811D000F0F4F8E6
:1013600032003B00121A8B41002B15DC002B46D0BB
:101370002000290000F026F902B080BCB846F0BD7C
:10138000A642EBD90026002700F0DEF832003B0031
:10139000121A8B41002BE9DD00F0D6F832003B0039
:1013A000121A8B41002B0ADB00230193164B3200EB
:1013B000009316483B00FFF71FFF0130D8D00023F1
:1013C0003900B0469C46124A1248536A994204D8E2
:1013D000966AB045CCD99942CAD10668EFF3108716
:1013E00072B63368002BFCD0BFF35F8F0368BFF386
:1013F0005F8F66461E6087F3108820BFE5E7002AEE
:10140000B6D0C9E7FFFFFF7FED0D0010FC0F0020F5
:1014100000400540281D0020F0B557464E46DE46E8
:101420004546E0B506000F0085B0EFF30583994609
:101430008B46002B12D0384900204B6ABB4206D3A2
:101440008A6ADB1B591E8B41B2424041184305B0EA
:10145000F0BCBB46B246A946A046F0BD2F4B9A460B
:10146000DB68984653461B784046039300F064F8C7
:101470004246039B040004339B009B580D001B1A3B
:1014800039003000001BA941894510DC0DD020BF78
:10149000214A0020536A5B45D9D3926ADB1B591E4F
:1014A0008B41B24240411843D1E78342EFD900F06B
:1014B0004BF832003B00121A8B41002B1ADB002341
:1014C0000193174B3200009350463B00FFF794FE08
:1014D000011E0FDD104B5A6A5A451BD39B6AB3425B
:1014E00016D35046FFF7E0FE0B4A0020536A5B45D7
:1014F000ADD3D2E7084A0020536A5B45A7D300204A
:10150000926ADB1BB24240415A1E934118439EE748
:101510005A45E6D120BFE4E700400540FC0F00201B
:10152000ED0D001010B5024A0248FFF7F5F810BDA6
:101530008C430010B01800200300416A0A00986A2A
:10154000596A8A42FAD17047034B596A0A00986A6D
:10155000596A9142FAD170470040054070B50400C5
:101560000D00174A536A1900966A536A8B42FAD1E2
:101570003000190024184D41AB4216D813D0104B3F
:101580002A005B6A9D4203D90D494B6A9342FCD302
:10159000934207D10A4A02E0516A994202D1916A04
:1015A000A142F9D370BDA642E9D9054B5B6A1C0084
:1015B0005A1CEFD0012201246442E5175242E3E7AE
:1015C00000400540064A536A9942FCD807D1044BB3
:1015D00002E05A6A914202D19A6A9042F9D8704761
:1015E00000400540F8B5040006200D0000F078F931
:1015F000002844D0374B3849E3185A1E93418022C3
:10160000120494465B429B0D344A9B05634413606D
:10161000334A136018000A689043FBD12D4B314ABE
:10162000E31859424B4180215B0049000620995242
:1016300000F056F92900C00000F024FB0130C30976
:101640001ED1402701226262A362266BF30722D4D7
:10165000E36A254B0620E51800232B60266300F083
:101660003FF93900800000F00DFB7023E26A5A4018
:101670000E3313402B601D4B23630323A364F8BD7B
:101680001B4A93421ED900231A4A1B4F6262A3626F
:10169000266BF307DCD5194B144AE3181A60656A08
:1016A000A36A0620AD01ED1800F01AF9144900F004
:1016B000E9FAAD020100280000F0E4FA0021FFF78A
:1016C0004DFFC5E74006800E9F011A003F1803003A
:1016D000B9E7C0460080FCBF08C0004000E0004001
:1016E00000F000402C1D00202C1000000103000021
:1016F000FEFF0000FFFF0000C0FF3F003030000091
:101700004E0E0000F8B5DE464E4657464546E0B55B
:101710008B4605000A991800160000F0B3FA0A9BE0
:101720006C001F02324B64199C46A4006444636839
:1017300081469F4200D967602B1FDBB29846012B80
:1017400030D9C02380229B01E31812011A60294B73
:10175000AD0059599A4600291BD17301E026226831
:1017600053401E40802342465B01E3181E60012A5D
:1017700030D9802380229B01E31812011A6053465E
:101780004A4667605A51F0BCBB46B246A946A046DD
:10179000F8BD586900F076FA013043001B18033B8E
:1017A000FDD2DAE75B46012BCBD1C02303229B019C
:1017B000E3181A60023AA3681A42FCD07301E026CB
:1017C0002268AD0053401E4080230A4A5B019246C6
:1017D000E3181E605A462168514003220A401A60ED
:1017E00001225B469A40A3681A42FCD0C1E7C0467A
:1017F00000800040B4180020F0B546464F46D6465B
:10180000C0B51F00344B44009C462418A400644417
:10181000636888461600FF2B02D880235B00636054
:10182000031FDBB29A46012B30D9C02380229B01D3
:10183000E31812011A60294B85005959994600296D
:101840001BD17301E026226853401E40802352467C
:101850005B01E3181E60012A30D9802380229B019E
:10186000E31812011A6080235B0063604B465F51EE
:10187000E0BCBA46B146A846F0BD586900F002FA8D
:10188000013043001B18033BFDD2DAE74346012B2E
:10189000CBD1C02303229B01E3181A60023AA3684C
:1018A0001A42FCD07301E0262268850053401E4096
:1018B00080230A4A5B019146E3181E604246216874
:1018C000514003220A401A60012342469340A26815
:1018D0001342FCD0C1E7C04600800040B41800208D
:1018E000014B8000C0587047B4180020F8B50400C0
:1018F00021481E0017000D0000F0C4F90100380057
:1019000000F0C0F9069B36041B031E432368002B1E
:1019100020DB1A4B1A49E3185A1E93418022920188
:1019200094465B421B0B174A1B0363441360164A21
:1019300013601F000A689743FBD1144B2560E2181F
:101940002123A06013602368002BFCDA0823E660E3
:101950001360F8BD3F2322681340AB42D9D1A3687E
:101960001B051B0D8342D4D1EE22E368D202134043
:10197000B342CED1EDE7C046001BB7000040FDBF2B
:1019800008C0004000E0004000F0004004300000CB
:101990008023024A9B000B43D362704700800540BE
:1019A000002310B50100988A1B8B984710BDC046D4
:1019B000162310B50100188802331B88984710BD04
:1019C000F8B54746CE4680B50F1E18D01423994669
:1019D000043304000025012698464B4618884346E8
:1019E00021681B88984701C4431E98410135064071
:1019F000AF42F2D13000C0BCB946B046F8BD0126B6
:101A0000F8E7C046AA23064A1B0113608D235B003A
:101A1000D3600449044B19605368002BFCDA70470B
:101A20000040024000B0FA00006002407047C0462B
:101A300010B50148FEF742FEB043001070B5074DE7
:101A4000074EB54209D20024013E761BB60808CDE8
:101A5000984723000134B342F9D170BDD042001041
:101A60000C430010054B064A06491A60064A074B0C
:101A70001A6010000B689843FBD1704700E00040EB
:101A8000BFCDFBFE08C00040FE7F3C0000F00040E0
:101A9000044BDB6C002B03D18022034BD2021A6073
:101AA0007047C046000011504C201150044A054BAD
:101AB0001A60054A1368DB018033FBD17047C046CA
:101AC000FFFFFF0100F0004008C000404022034B30
:101AD0009A675A671A67DA667047C04600F0014095
:101AE00010B5FEF79DFE10BDF8B52749274C284DCF
:101AF000641AA6103200302E00D93022280092003D
:101B000000F022FCBC2C3BD830202F232C1964077A
:101B1000204A801BE40F9B1B052B16D93700002C95
:101B200002D0B300771CEA50001B33199B00410818
:101B3000EB18C900C9181A605A6008339942FAD1E3
:101B4000012303421CD09843C619B300EA50731C0A
:101B50002F2E15D09B00EA50B31C2E2E10D09B00C8
:101B6000EA50F31C2D2E0BD09B00EA50331D2C2E77
:101B700006D09B00EA50731D2B2E01D09B00EA502B
:101B8000054B9D60F8BDC04600010010C00100106B
:101B900000000020C101001000ED00E0002310B59E
:101BA000294C82B0A367FFF72DFF0122274B1A6053
:101BB000636C012BFCD10322254B1A60224A936BE4
:101BC000012BFCD1013300930121224A2248043326
:101BD000FFF78CFE052301210093204A2048FFF7E0
:101BE00085FE0022022104201E4BFFF705FE002285
:101BF000012105201C4BFFF7FFFD002200210720DB
:101C00001A4BFFF7F9FD002200210820174BFFF7C0
:101C1000F3FD8023DB000093002200210920134BF9
:101C2000FFF770FD0022104B00210620FFF7E4FDB6
:101C30000420FFF755FE0E4900F024F801000020B3
:101C4000FFF7A6FE02B010BD008000403CB000408F
:101C500030B00040002F685900800240008C864759
:101C600000C00240001BB70040597307006CDC0243
:101C700040420F0001480421014B1847201000206A
:101C8000C1190010114A936F9B0813D21066516658
:101C9000002905D0FFE7FFE7FFE7516F106F70479E
:101CA00004B5002801D00020C04302F0E1FA002171
:101CB00004BDC046F0B5146E556E576F166FFFF732
:101CC000E5FF1466556657671667F0BD000000D043
:101CD00094464A4A926F9208624601D228E0C04672
:101CE000F0B5464E346E756E776F366F00F020F8A3
:101CF0009446424A14665566576716676246F0BDB9
:101D000094463E4A926F9208624601D254E0C04621
:101D1000F0B53A4E346E756E776F366F00F04CF852
:101D20009446364A14665566576716676246F0BD94
:101D3000002B24DB11D000293EDA00B5C943404214
:101D400000D1013100F038F8C943404200D10131DF
:101D5000DB43524200D1013300BD002AEBD1002801
:101D600001D1002905D00020C90FC90701D1C04306
:101D7000410800B502F064FA0022002300BD00B55E
:101D800000290ADBDB43524200D1013300F014F892
:101D9000C943404200D1013100BDC943404200D196
:101DA0000131DB43524200D1013300F005F8DB433F
:101DB000524200D1013300BD002923D1002B18D19C
:101DC000002A0CD0BC460D4F38667A6600210023ED
:101DD000FFE7FFE7FFE77A6F386F67467047002835
:101DE00001D00748010000B502F02AFA00220023C2
:101DF00000BD02000B00002000217047000000D051
:101E0000FFFFFFFF002B00D0BFE0130C28D1002AFA
:101E1000E7D080B4114F39667A66FFE7FFE730B448
:101E2000040C7B6F396F1B0423433B667A66FFE724
:101E3000FFE7FFE7C04684B27B6F3D6F1B0423437F
:101E40003B667A66FFE7FFE7C04600232C042D0CB3
:101E50007A6F386F00196941B0BC7047000000D03C
:101E6000F0B594460025140E01D112020835140F66
:101E700001D112010435940F01D192000235D40F23
:101E800001D152000135D40B0134254F7C66254C1D
:101E90003C660E0C93B2FFE7FFE7FFE73C6F66433B
:101EA000360C7703BE467343DF0B5B04C01AB9419F
:101EB000130C7343DB18C91ACE086643360CB644BC
:101EC00093B273431F0F1B01C01AB941130C734324
:101ED0001F0B1B05C01AB941860D8F023E43664396
:101EE000360C092D24DB520A7243801A7703460A06
:101EF0006643360C16235B1BDE40DF40BF19644689
:101F00006643821B7046043506330100D940A84061
:101F1000C01900D30131A24206D20023F0BD000057
:101F2000000000D0FFFFFFFF121B0130F3D3F1E7E9
:101F300009277F1BFE406446A2B27243801A00D27A
:101F40000139220C7243130C1204821A99410B00BE
:101F50007046043513370100F940A840801900D3BA
:101F60000131002B02D1A2420AD2F0BD013000D3D0
:101F70000131121BFAD2013BF8D1A24200D2F0BDCE
:101F8000013000D30131121BF7E7F0B51C0C00D073
:101F900080E00CB400251C0A04D11B02160E33434A
:101FA000120208351C0B04D11B01160F334312011A
:101FB00004359C0B04D19B00960F334392000235ED
:101FC000DC0B02D192185B4101351C00971864416B
:101FD0000134464F7C66464C3C660E0CFFE7FFE73B
:101FE000FFE7C0463C6F6643360C7703BE4697B2A8
:101FF0007743C01B00D20139C01B00D201399FB208
:102000007743C91BC91B170C77437E04FF0B801B4A
:10201000B941CE086643360C0C2D33DBB644120BA7
:102020001F053A431B0B97B27743C01B00D20139FF
:102030009FB27743C91B170C77433E043F0C801BAC
:10204000B941860D8F023E43664329277F1BFE4020
:102050000C3D7746AF40BF1930BCA2B2ABB2724361
:102060007343801A9941220C7243130C1204801A94
:10207000994102000B000137001BA941F9D2781EDB
:102080000021F0BD0C277F1BFE4077467F0BAF4041
:10209000FF19E0E700245D1C07D0144F7D66396608
:1020A000FFE7FFE7FFE7FFE73C6F95B29EB26543AE
:1020B0006643401BB141150C1E0C65436643360454
:1020C0002F0C3E432D04401BB141994204D2020023
:1020D0000B0020000021F0BD01D19042F7D3801AFF
:1020E000994101349942F2D3F6E70000000000D094
:1020F000FFFFFFFF132370B51D78012D19D014DDEC
:102100001F48FFF755FC06001E48FFF751FC1E4C08
:1021100080223100200000F017F9022D2DD01B483D
:10212000FFF73EFC1A4B186070BD1A4B164CA364A7
:10213000F5E7184B144C23606360A360E3602361F0
:102140006361A361E36123626362A362E362236369
:102150006363A363E36323646364A364E364236549
:102160006365A365E36523666366A366E366236729
:102170006367A367E367A364D1E7064BA364CEE775
:102180005344000053460000081200204C33000066
:10219000241D00209921001007B5604601880A0A15
:1021A0000230DF2AFAD1C9B2820804D302884088FB
:1021B0000004104300E00068014A5050039007BD3E
:1021C0000812002051434343C9188C46110C83B2B6
:1021D0004B4310B4040C614392B280B2504362434B
:1021E0001C041B0C001910BC59411304120CC0181C
:1021F00051416144704700004840414048400E4B07
:102200005B6818470C4B1B6818470C4A936F9B0878
:1022100002D2094BDB681847F0B5146E556E576F44
:10222000166FFFF7F6FF054A14665566576716677F
:10223000F0BD014B9B68184708130020000000D038
:10224000491A002808D1084670470000C10FC90785
:1022500000D54042002817D0F44603B40B4B1B684E
:10226000984706BC81409E384042803107D20B0619
:1022700007D04900490AC0051043084360470130B0
:10228000F8E7490A8902F5E770470000241D00209D
:10229000014B5B6A1847000008130020132310B598
:1022A00012481C78FFF784FB0100012C0AD003DDE3
:1022B00080220F4800F048F80E48FFF771FB0E4BE4
:1022C000186010BD0A4C5422200000F03DF80B4B62
:1022D0006365A365E36523666366A366E3662367B8
:1022E0006367A367E3672362E361E5E753460000A2
:1022F000081300204C330000241D0020012300108F
:1023000007B5604601880A0A0230DF2AFAD1C9B24D
:10231000820804D3028840880004104300E000686B
:10232000014A5050039007BD0813002001480421C2
:10233000014B184730100020C1190010014B1B68D9
:102340001847000030100020014B5B681847000060
:102350003010002010B5002800D110BD00F02CF97D
:10236000FBE7C04610B5094A0300146884B0002C8E
:1023700008D0012200910648524203A9A04701203B
:1023800004B010BD00F062F90020F9E7EC1C002059
:102390005523001000BEFDE710B5FFF7FBFFC04658
:1023A00070B5FFF74BFB074D074EB54209D200242D
:1023B000013E761BB60808CD984723000134B3428E
:1023C000F9D170BD0C43001018430010030010B584
:1023D000080011001B68984710BDC046F0B5C646FE
:1023E00000B5437D07000C001600002B46D0002AE4
:1023F00017DD0B780A2B24D000239846012E13D02A
:1024000001252900635C01350A2B26D0B542F8D19D
:10241000464509DCA419013C23780D3B5A4253413F
:102420003B7580BCB846F0BD4346E018A419F11ACC
:10243000013C3B68984723780D3B5A4253413B751A
:10244000EFE7037D002BD7D102210F483B68984767
:10245000012EDFD001239846D2E7631E5B5C0D2B73
:10246000D4D0884504DA4346C91AE0183B68984737
:10247000022105483B68A8469847C7E70368110052
:1024800020009847CDE7C0463C450010F0B54546D2
:10249000DE464E465746E0B583B091461C00804666
:1024A0000D00FFF751F80023304A12184B41002B62
:1024B00002DA01222E4B52422E4908008A4601F0D0
:1024C000E7FE07006B1C03D1404601F019FE050032
:1024D000002C27D0284E294B1C68002C18D04B46C6
:1024E000002B21D1264B994602E02469002C0FD005
:1024F0002368002BF9D04B461B68002B01D09C426F
:10250000F3D120002A004146B0472469002CEFD1C6
:10251000002F26D1280003B0F0BCBB46B246A94626
:10252000A046F0BD174ED6E7154B99460A239B46A9
:1025300002E02469002CEBD02368002BF9D04B4635
:102540001B68002B01D0A342F3D12A004146200092
:10255000B0476B465A462000DA71D91D0122B047B8
:10256000E7E7504601F064FED4E7C04640420F0062
:10257000FFFFFF7F7C100020DD230010DC1800200F
:10258000E4180020CD2300100A4A1368002B05D15F
:102590000CE01A001B691032002B07D08342F8D1DF
:1025A000002902D118691060196170470029FCD018
:1025B0001060FAE7DC180020F0B5CE46474680B53B
:1025C00083B06B460600DD1D2870FEF7BDFF0023BB
:1025D000194A12184B41002B02DA0122174B5242C2
:1025E00017490800884601F053FE164B81461C68C7
:1025F000002C14D0144F02E02469002C0FD0236863
:10260000002BF9D03B68002B01D09C42F4D1200074
:1026100001222900FFF7E2FE2469002CEFD14B468E
:10262000002B05D1300003B0C0BCB946B046F0BDA8
:10263000404601F0FDFDF5E740420F00FFFFFF7F40
:102640007C100020DC180020E418002070B5040085
:1026500001F056FD01230100050001222000FFF7D3
:1026600015FF084B1C68002C06D06368002B05D0B2
:1026700098472469002CF8D1280070BD2469002CEB
:10268000F3D1F9E7DC180020F0B5002915DD0E4B79
:102690000D271A680D4B0E4CD3185D426B4145183F
:1026A00020215B001E5F0478A64207D0936919427F
:1026B000FCD101301460A842F5D1F0BD93691942F4
:1026C000FCD11760F2E7C046341D00200080FCBF3B
:1026D0002C1D0020204B70B504000D1E1E682ADD45
:1026E000002010211D4B013C1A689369194214D136
:1026F000013093691942FCD1136823548542F4D107
:10270000002E08D050239363516B183B0B401449A3
:102710008C4662441360280070BD002E08D0502300
:102720009363516B183B0B400D498C466244136018
:102730000028F1D10CE0002E0AD05022074B1B6874
:102740009A63596B183A0A4005498C4663441A60EB
:1027500003204042E0E7C046A4180020341D0020BA
:1027600034100000064B10B51B68002B06D000216A
:10277000044A12689163044A1068984710BDC04625
:10278000A4180020341D0020A81800200822034BA4
:1027900019688B691A42FCD17047C046341D00206D
:1027A000F8B51A4F1A4B3A680500D31858424341FE
:1027B000184E14331C003368002D02D0002B0FD0AC
:1027C000F8BD002BFCD0002120009563FEF748F8EF
:1027D00020001149FEF77AF9104B35601D60EFE7D4
:1027E0000E4B200019600C493560FEF74BF80121B3
:1027F0002000FEF735F850223B689A63596B183A6F
:102800000A4007498C4663441A60D9E7341D00200A
:102810000080FCBFA418002065270010A818002025
:102820003410000070B50C4E0D001C003060002A02
:1028300003DB02211000FDF701FF002C03DB022166
:102840002000FDF7FBFE29003068FEF7CBFE0121DA
:102850000248FFF799FE70BD341D00204010002093
:10286000F8B500F047F90C23194DFF22AB6705209E
:102870001849FEF731F8184C402200212000FFF7DC
:102880005DFD4027002301262121144A667027831D
:10289000A260136063545F31618445396354104A08
:1028A00010496360E2602787A1620B606362E262A5
:1028B00001F0D6FC80239B052E64EB6490230A4A2A
:1028C0000120EA508022094B5202DA64F8BDC0466A
:1028D0000000115015030020E8180020840010505B
:1028E000000110508000105010D001000020115045
:1028F00010B501210520FDF7B3FF10BD10B5002272
:102900000021024800F016F910BDC0460819002049
:10291000044B1970002904D080219023024A8902B7
:10292000D1507047391D0020002011500B785B06F4
:1029300002D14B78052B00D070478A78014B1A6082
:10294000FAE7C04600001150F0B5C646C87800B599
:102950008007830F1800012B60D08F780A794B799C
:102960007F213940FC091B024E001343334D3219BD
:102970005201AA18977001276740577000275B051E
:102980005B0DD7701383D076B846CA00012C32D0C5
:102990002B4FBC468F016244BC46AC446746BA60CC
:1029A00047461760002932D0264AC9009046624641
:1029B000414451603F223F339343022837D022499C
:1029C00037190A687F01D3180B602049EF19FA60A4
:1029D0008B422ED836197601AD19EB7E1C499B0629
:1029E0004A4013438022120613436A681360012091
:1029F00080BCB846F0BD174FBC468F016244BC4650
:102A0000AC446746BA6247461760002908D10023E4
:102A100064012C196360104BE360E8E70020E7E7EE
:102A20000B4AC9009046624641445162C2E75B00CE
:102A3000C5E7FEF7FDFFFA68CCE7C046E8180020BE
:102A40008400105004001050F01C0020FF0F1050A4
:102A500000001050800010500001105010B501F01F
:102A6000FFFB10BD10B57F200C0020404000E409A2
:102A7000110000191A00034B4001C01800F05AF869
:102A8000012010BDE81800207F23180000B5084081
:102A900083B00B4204D14B424B41084A0133936649
:102AA0008022C9094000064B401840010021C0188F
:102AB000120101F005FC03B000BDC046002011501A
:102AC000E81800207F22130010B50B400A4200D105
:102AD00010BDC9095B005B1804485B01C0180023E6
:102AE00000220349C37001F0EBFBF1E7E818002076
:102AF000FFF7FFFF80220A4B520410B51A60094B02
:102B000009491A6010000B689843FBD1802200210C
:102B100052010648FFF712FC0922054B5A6710BD07
:102B200000E0004000F0004008C0004000001050ED
:102B300000001150002310B5C382013382828376D6
:102B40000161040001F084FB002804D0802190235F
:102B5000074A8902D150200001F0AAFB002802D0C8
:102B60000123237710BD200001F09AFBFAE7C0464D
:102B700000201150002070477047C0467047C04683
:102B80000020704700207047002070477047C04603
:102B90007047C0467047C0467047C046024B5878E1
:102BA000431E9841C0B2704780160020024B18782F
:102BB0004007C00F7047C04680160020F0B5D646CB
:102BC0004F464646C0B52D4B07009A461B780E006F
:102BD000FF2B4DD100293ED0002154222848FFF779
:102BE000ADFB0022274C284B20001A70FEF7E2F8BC
:102BF000264B1C60264C2000143CFEF7E9F8200010
:102C000001F0DCF8234B244D1C60244B002B04D036
:102C1000280000E000BF224B1860224A00249146A1
:102C20001F4A2B7890460EE043461B6862019B18B2
:102C3000002B10D05B68002B0DD0984701342B7807
:102C4000E4B2A34209D3A342EED8E31A5B014B449A
:102C50005B68002BF1D100200BE0534631003800B7
:102C60001F70FFF7FDFD0028F5D03800FFF740FE8C
:102C70000120E0BCBA46B146A846F0BD7410002061
:102C800080160020781600203A1D0020D41600205F
:102C90006C100020D8160020381D00200000000015
:102CA000A0150020E8450010F0B5DE4657464E4618
:102CB0004546E0B5CA4B8FB003931B78FF2B00D17C
:102CC00046E1C84BC84E9B465F46C84B0BAC0293CF
:102CD000C74B019335686A69EFF3108172B61368C8
:102CE000002BFCD0BFF35F8FA9612800210000F00A
:102CF000C5FF6A69AB69BFF35F8F0021116083F381
:102D00001088002800D123E16378082BE2D89B00CB
:102D1000FB589F466368002BDCD0A0689847D9E732
:102D20007F222179B14D0A405300EB189846C8091B
:102D3000804440460123303005799D430571057973
:102D400003339D430571002A00D108E14346A94A97
:102D50001B7D1278934200D3F8E0A74A5B01156807
:102D6000ED18002D00D1F3E0A36862792078AD69F9
:102D7000A847AFE7A14A1378002B00D1E8E0137809
:102D8000013BDBB213701378002BA3D10122974DC6
:102D900001212B78042013432B703423EA5C8A43EF
:102DA000EA54EA5C8243EA540133EA5C8A43EA5417
:102DB000EA5C8243EA5423780020984600F05EFCE7
:102DC000602223791A40602A00D1F3E0402A00D122
:102DD000F9E0DB06DB0E012B00D117E1022B00D15D
:102DE000CCE0002B00D0E5E0202A00D10FE2002A41
:102DF00000D0DFE06379092B00D9DBE0804A9B003B
:102E0000D3589F46794D2B78DB0700D462E7FFF754
:102E1000C3FE5FE7029BDB78DB0700D45AE76068FC
:102E2000FFF7ACFE56E7714D2B78DB0700D451E776
:102E300028780007C00FFFF7ADFE4BE723786C4AF8
:102E4000984693466B4B6C4A9946310092463A003D
:102E500046464F460025914688461B780EE053466D
:102E60001B686A019B18002B00D17EE0DB683000F4
:102E7000984701353B78EDB2AB420CD39D42EED37F
:102E8000EB1A5B015B44DB683000984701353B7807
:102E9000EDB2AB42F2D2554D542200212800FFF78B
:102EA0004DFA1022FF21281DFFF748FA28002022A2
:102EB000FF21143046464F46FFF740FA00F0D4FB9E
:102EC0002379AB7006E723784B4A9846494B9246E4
:102ED00099463200BB46464600254F4690461B7831
:102EE0000DE053461B686A019B18002B41D0DB683C
:102EF0003000984701353B78EDB2AB420ED39D428E
:102F0000EFD3019AEB1A94465B016344DB6830000F
:102F1000984701353B78EDB2AB42F0D2029D542286
:102F200000212800FFF70AFA1022FF213548FFF799
:102F300005FA28002022FF21143046465F46FFF79D
:102F4000FDF900F091FBFFF723FEC3E6934213D097
:102F50000FB0F0BCBB46B246A946A046F0BDA36880
:102F60006279207800F09EFBB4E646464F461F4D3E
:102F7000A4E746465F46E4E71D4DF5E67023217A57
:102F80000B4217D1C80983460F330B405B009946AB
:102F90001848EB185B441B7D0078834261D21648C9
:102FA0005B01006882469A44002A00D14EE15346F4
:102FB000002B5ED120780021FFF766FD802120786C
:102FC000FFF762FD86E6104800F058FB01214046FD
:102FD0000CAAFFF7CFFD002800D07BE6EAE7C04649
:102FE0007410002040450010D816002080160020E4
:102FF000E8450010381D0020A01500203A1D0020D3
:103000006445001084160020752B0010237A0F2BC6
:10301000D0D8D54AEB181B791278934234D3C9D152
:10302000D24D686900F02AFB012140466B690CAA69
:103030009847002800D04DE66022150023791D40F6
:103040001A42B7D163790A3B012BB3D800F016FBC3
:1030500063790A2B00D17DE140460CA900F09AFA71
:1030600038E6834200D0ECE0C04B9A46002A00D1FB
:10307000ECE05346586900F001FB534601214046FD
:103080005B690CAA9847A6E7B94A5B011568ED1879
:10309000002DC6D18EE7A3799A466B789A45DBD08E
:1030A0006B78002B00D028E153466B70002B00D1C9
:1030B00020E150460138C0B2FDF782FA002800D165
:1030C00071E14378022B00D06DE10122C179A9465C
:1030D0008B11491113400A40302112015B01134347
:1030E0002A788A4313432B7009239B4683445D4609
:1030F000B346C37882781B021343C31806939A4BD6
:1031000004970593994B0893994B9A46994B0993C9
:10311000069BAB4200D849E16B7801220B2B03D10F
:103120002B78EA78ED186B78042B00D038E1069BF9
:1031300000265B1B9BB20793059B17001B7818E0CA
:1031400053461B6872019B18002B00D128E129000F
:1031500040461B69079A9847082803D9079B834272
:1031600000D30BE1059B01361B78F6B2B34200D2C7
:1031700016E1B342E4D8089AF31A94465B0163441B
:10318000E5E76B780AAA02321370404601230CA9C6
:1031900000F016FA9EE5E3881A0AD8B20F2A00D981
:1031A00008E775499300CB589F460CA800F06CFACD
:1031B0004046A179FFF7A2FB02222B7813432B7024
:1031C00088E5E388012B00D0F4E608222B784046FE
:1031D00093430CA92B7000F0DDF97BE502202978E0
:1031E0000AAB9A1C8B068908DB0F01400B43138046
:1031F000404602230CA900F0E3F96BE5E388012BBC
:1032000000D0D7E608222B7813432B7024E7237ACB
:103210000F2B00D9CEE6544AEB181B791278934253
:1032200028D2534A5B011568ED18002D00D1C1E684
:10323000686900F023FA012140466B690CAA98479F
:10324000C9E6002A00D0B5E600239A46627902203A
:10325000130004928343012B11D0002A00D0A9E669
:103260002B004B445B4430331B790AAA9B07DB0FCE
:103270000232BCE7934200D09CE63C4DD8E7E3889D
:10328000002B12D1039B1878049B012B23D0FFF74E
:10329000FBFB4B460221EB185B4430331A790A439F
:1032A00001211A711A790A431A715346002B00D171
:1032B00010E5586900F0E2F9534601215B690CAA58
:1032C00040469847002000F0D9F93523EB5CDB0736
:1032D00000D5FFE4C0E6FFF7F5FB4B460221EB18F3
:1032E0005B4430331A798A431A711A7904998A43F4
:1032F0001A71DAE7FFF74CFCAEE600214046FFF713
:1033000007FB4046FFF7AAFB00229346174AAB781B
:103310000592174A049306922A00134B5D4699467C
:1033200093461B780EE0069B6A011B689B18002BD6
:1033300055D0DB68404698474B4601351B78EDB2C7
:10334000AB4238D39D42EED3059AEB1A94465B010B
:103350006344EEE70AAB9A1C404601230CA91570A2
:1033600000F02EF9B6E4C046381D0020E8450010F4
:10337000A0150020941600208C4500103A0007008C
:10338000002A3CD0AB789A18D2B204E00133DBB209
:103390000E719A4233D04946C9180879FF28F5D0F2
:1033A0005E464D46049F00236B7003E65E46049F15
:1033B000FFF7ECFB50E65D46542200212800FEF7A3
:1033C000BDFF1022FF21281DFEF7B8FF2800202294
:1033D000FF211430FEF7B2FF049BAB7064E65D463C
:1033E000FAE7FFF7CDFB021E00D1E3E5D378917831
:1033F0001B020B4340460CA900F0E2F8EBE533005A
:1034000029003A00099800F01FFC059BED191B7874
:10341000B34200D37CE6C3E7FFF7B4FB021E00D142
:10342000C8E5404613780CA900F0CAF8D3E5218915
:10343000FDF7CAF8021EF4D1BCE5022A0FD0FFF74F
:10344000A3FB021ED2D1B5E5FDF7B2F8021E00D1F2
:10345000B0E5122340460CA900F0B2F8BBE5FDF739
:10346000AFF8021EC2D1A5E5F8B557464E46DE4676
:1034700045460C00E0B516001F00002A3CD0702322
:1034800098461E4B00259B461D4B9A461AE05B460C
:103490001B78200099465346997800F097FB002846
:1034A0001CD021004846FFF74FFA002816D0A37819
:1034B000DA09012A19D00A9A013513702378E41821
:1034C000AE4219DD6378052B08D1E3789B079B0F8B
:1034D000BB4203D14246A3781A42D8D00020F0BCA8
:1034E000BB46B246A946A046F8BD0B9A01351370FB
:1034F0002378E418AE42E5DC0120F0E774100020E8
:10350000801600200B007F2010B51840DB093433F3
:103510004000044AC018044B1168C01800F02EFB8C
:1035200010BDC046D41600208016002070B57F2440
:103530000F480C4064000419CD0964193034207917
:10354000C00701D5002070BD012625790948354303
:1035500000782571FFF786FA0028F4D1012223793B
:10356000934323712379033293432371EAE7C046DF
:1035700080160020741000207F22054B0A40520064
:10358000C9099B185B1830331879C007C00F704702
:103590008016002070B5094C0600082220000D009E
:1035A000FEF7D2FE00238021E360A3602B78300079
:1035B000994300220023FFF7B9FF70BDE4150020F6
:1035C000F8B5CE4647469046254E80B5814608223E
:1035D00030000D001F00FEF7B7FE4346B360002326
:1035E000F381EC79AB7924021C43231CBC4200D943
:1035F0003B1C9FB2B381002C0DD0002F17D0424648
:10360000002A2BD0402F1BD89FB233787F2B1CD899
:103610000021144A0FE080212B780022994348466C
:103620000023FFF783FFC0BCB946B046F8BD7F2337
:103630000022317899433B004846FFF777FFF2E7D5
:1036400040239FB233787F2BE2D9064C3A004146A3
:103650002000FEF779FE80212200ECE70020E2E75F
:10366000E4150020A415002010B514220021024802
:10367000FEF764FE10BDC046E4150020014B186142
:103680007047C046E415002010B5054C0100082223
:103690002000FEF759FE0023A360E36010BDC04682
:1036A000E415002070B5384C1D0023780600DA09B7
:1036B000C9098A4210D00020002D00D070BD210021
:1036C0003000FFF733F92369002B03D022000321D8
:1036D000300098470120F1E77F2B06D8A06800282A
:1036E00034D02A002949FEF72FFEE289A168521939
:1036F000E38892B24919E281A160934214D03F2D30
:1037000012D9A389981A051C80B240282AD820789B
:10371000ADB27F2828D800219A4232D01B4A2B0014
:103720003000FFF703FFC9E72369002B05D0220013
:1037300002213000984700280AD0802123780022F7
:10374000994330000023FFF7F1FEB7E70020B5E70B
:1037500000213000FFF798F930008021FFF794F93D
:103760000120ABE74025D2E79A4207D0074C2A0058
:103770002000FEF7E9FD80212200D0E78021002211
:10378000CDE70022CBE7C046E4150020A4150020B9
:103790007047C046012070477047C0467047C0461A
:1037A00042000C4B1218920010B59B185C78FFF782
:1037B000F5F9002801D1002010BDFFF7F7F9002826
:1037C000F9D1002CF7D02100FFF7D6FE0123584095
:1037D000C0B2F1E768160020F0B54F464646D6461F
:1037E0001D000023C0B50C0008A9CB560027984641
:1037F000002309A9CB560AA916009946CF570028DD
:1038000005D00020E0BCBA46B146A846F0BD124B38
:10381000002059789A46FFF775FE0028F1D00F4B2B
:10382000002C0ED142469A744A461E745D74DA74B6
:103830001F75052351460A4A49780020FFF776FE96
:10384000E0E74246DA744A461C745E749D741A7549
:103850005F750623EEE7C046681600203816002084
:103860004816002010B50C2200210248FEF766FD24
:1038700010BDC046681600200120704710B50C220C
:1038800000210248FEF75AFD10BDC0466816002010
:10389000F0B54B7906000D0083B0032B0AD10879EF
:1038A000C400241A1234A4B2944203D8194F7B786E
:1038B000002B03D00024200003B0F0BD0978691864
:1038C0004B78212BF6D1B9600B780200C9187B1C0C
:1038D0000193BB1C009330000323FFF7C5FD0028B4
:1038E000E8D0AB79012B01D1EB79FB700123BB71DF
:1038F000AB78B9783B70BB68DA791B7A1B0213434B
:10390000BB800029D7D010233000034AFFF70EFEFA
:10391000D1E7C04668160020581600201F23F0B5D6
:1039200014001278050083B01340012B01D0002051
:103930000CE05A4E207933789842F8D16023180071
:103940001040134204D101290BD0012003B0F0BD77
:103950002028ECD163780B2BE9D8514A9B00D3582F
:103960009F466378062BE2D1E378212B7AD0222B75
:10397000DDD10020FCF720FE21000200B3882800E2
:10398000FFF71EFEE1E7012910D00329DDD1A17860
:103990000020B171FFF7FCFED7E70129D5D1E1780E
:1039A0000020F171FFF7F6FE0028C0D021002800AA
:1039B000FFF7F0FDC9E701295ED00329C5D1E07901
:1039C000A37900021843E278A178041C102800D9DA
:1039D0001024344BA4B2002907D0012805D9187847
:1039E000884202D1013C304BA4B200200094FCF785
:1039F000DBFDAAE70129A8D10123210028002B4AD9
:103A0000FFF7DEFDA1E701299FD101232100280056
:103A1000274AFFF7D5FD98E7012996D1E379A079E8
:103A20001B020343E278A178181C102B00D9102048
:103A300080B200292DD0012B2BD90126194F013836
:103A4000397080B27B1C00900020FCF7AFFD33186A
:103A50009BB2002B00D16AE73A0021002800FFF753
:103A6000AFFD72E7B268002A00D160E721002800AC
:103A70001378FFF7A5FD69E7E379A2791B021343E9
:103A8000102B00D953E721002800064AFFF798FDC4
:103A90005BE7044F00263B00D5E7C04668160020D0
:103AA0000846001038160020391600206E16002037
:103AB0006F16002070B51B4D0400A8786E7882B098
:103AC000884204D08E4216D0002002B070BD9BB256
:103AD000864211D0144E002A17D1009300213300E2
:103AE00000200232FCF760FD102332002000A9788C
:103AF000FFF71CFDE9E79BB2002A0CD100201A0059
:103B00000A49FFF749FE0120DFE7320002210020C9
:103B1000FFF744FEE8E700200121044AFFF73EFEDC
:103B20000120D2E768160020581600204816002011
:103B300000B5030083B0002910D00020012B07D866
:103B40000A78002A04D00C48C2540120012A01D06E
:103B500003B000BD1800FFF731F8F9E701236A460A
:103B6000002001A99380FFF729F80028F0D0012256
:103B7000014B1A70ECE7C04674160020037870B54C
:103B8000DB0704000E00DD0F002B17D103785B0765
:103B900001D5280070BD01213000494200F070FBC2
:103BA0002378DB07DD0F002B0AD123785B0708D4CD
:103BB0000422237801251343237002E00025E8E75F
:103BC0000025300000F034FBE3E7C046437902797A
:103BD0001B021343C2785B0592075B0D920F022A0A
:103BE0001DD0032A0CD00020012A08D102394A42F4
:103BF0005141124A9446614499424041C0B27047D3
:103C000002394A1E91410E4A494211408022D20097
:103C100094460020614499424041C0B2EFE7022936
:103C200005D0002040229A424041C0B2E7E7054A51
:103C3000981843425841C0B2E1E7C046FF03000074
:103C400040FCFFFF00FEFFFF8A1870B5914207D2CB
:103C50007F264C78052C04D00C7809198A42F8D8B4
:103C600070BD34008D782C4064000419ED09635553
:103C70000C7809198A42ECD8F2E7C04670B5040006
:103C800000690E00002803D00121494200F0F8FA33
:103C900025896089A288A9B283B2854232D3CD1A20
:103CA000ADB2002D28D0AA4208D291422FD3891A52
:103CB0008BB263819A4203D89B1A9BB29A42FBD97A
:103CC000E28821685204520C53433000C918FEF7B1
:103CD0003BFB63890125591C89B2A2888B420DD90F
:103CE00000215200891A89B220696181002801D01F
:103CF00000F09EFA280070BD618989B2520091429D
:103D0000F2DBEFE75500ED1A4D19ADB2C9E789189E
:103D10008BB26381CEE7C046F8B50400C0680E00E0
:103D2000002803D00121494200F0AAFA2589208900
:103D30006189A288ADB283B28FB2884229D3DB1BDE
:103D40009BB29A4209D8E779FF0906D1E0680028BA
:103D500001D000F06DFA3800F8BD2B0095421DD35C
:103D60009B1A9BB29342FBD2E28820685204520C09
:103D700053433100C018FEF7E7FA6B1C9BB2A288D0
:103D80009D4217D9002352009B1A9BB20127238121
:103D9000DCE75100C91B5B189BB2D2E7E2882068C0
:103DA0005204520C53433100C018FEF7CDFA0135CE
:103DB000A288ABB252009342E8DBE5E710B50400FD
:103DC000C068002803D00121494200F059FA206957
:103DD000002803D00121494200F052FA0023E06894
:103DE00063812381002801D000F022FA2069002895
:103DF00001D000F01DFA012010BDC04610B51920F9
:103E0000FCF736FCD0238022E1211B0692045A6283
:103E10000448054B0022186049020123FEF702FD09
:103E200010BDC04600400340301D002010B50248C0
:103E300000F004F810BDC0461C1D002010B588B06D
:103E400004000D2200216846FEF778FA0D220021B9
:103E500004A8FEF773FA4B236A466846137004A958
:103E60000D2200F0DDF91521082220006944FEF73B
:103E70006BFA08B010BDC046F0B557464546DE4661
:103E80004E468846E0B583B006000525FCF72EFCBB
:103E9000434684465D571879334B344AF3181B0D5B
:103EA0009B009246D758012220248240241A013ACE
:103EB000002D41DBA54232DC1100A9400F422ED17A
:103EC00041460968894641468979002945D12C0037
:103ED000AA40934659463A40394241D1802189014E
:103EE0008846002816D06146A44634004E469946BE
:103EF000030001915100705A404500D24019A918A1
:103F000012318900013208519A42F3D3019B644671
:103F10009C464B465A4617435246D75001E001246F
:103F200064426046FCF7EEFB200003B0F0BCBB46E9
:103F3000B246A946A046F0BD002C02DA10E0013CD2
:103F40000ED31100A14025000F42F8D14146096867
:103F50008946414689790029BAD014246442E0E7B1
:103F600009246442DDE7C0460000E0AF9C17002052
:103F7000F0B54E464546DE465746E0B583B0894625
:103F80000CA984460D781F2A45D849464900884621
:103F90004944C900461837003400DC373868CC344F
:103FA00083462068310001901C4880248246A40288
:103FB00051440C6069424D411E216D428D431849A8
:103FC0008A465544052B0CD9A0201F214005D83620
:103FD000540104430532053B3C600A403560052B23
:103FE000F6D852019B06134342464A44D20062442B
:103FF0001000DC3213600300D8331D605B46136091
:10400000019BCC300360002003B0F0BCBB46B2463D
:10401000A946A046F0BD05204042F5E7CC3000009F
:104020009FE00000F0B501258D400468AC430460BA
:10403000002B2ED04D006C18E400041926001F68D8
:10404000C83637609F68043677605F68DB68DC34A9
:10405000376023606B18184DDB00AC468025C41810
:1040600064442D0625602560144C0D1D8C40846031
:1040700001242600AE40802508318C401F21AD016F
:104080004519C0180A40D8302E602C60026000200C
:10409000F0BD4D006C18E400041926008027C836D6
:1040A0007F023760C0273F03B760F82704367F02DE
:1040B000DC3437602360CDE7D0100000010101013E
:1040C00010B5010000230022002000F047F810BDC9
:1040D00070B5074C074D641BA41005D0013CA3002C
:1040E000EB589847002CF9D100F098F870BDC04605
:1040F00018430010184300107047C0467047C04670
:1041000010B583070AD00300032102E001330B42FC
:1041100005D01A78002AF9D1181A10BD03001968C1
:104120000C4A0D4C8A188A4322420FD15968094A19
:1041300004338A188A43224208D15968054A043355
:104140008A188A432242F1D000E001331A78002A0B
:10415000FBD1E1E7FFFEFEFE80808080F0B5D64611
:104160004F4646469846244BC0B5060018689A4606
:104170000F009146FFF7C0FF204B1D68002D32D085
:1041800053466C6818681F2C30DC002E0CD1631C61
:104190000234A4006B606751FFF7B0FF0020E0BC61
:1041A000BA46B146A846F0BD49468822A300EB189E
:1041B0009950C42149008C46AC446146873AA240DC
:1041C00009689146114362461160842142464900C4
:1041D0005A50022EDBD129004A468D31FF310B683F
:1041E00013430B60D3E7064D1D60C9E7FFF786FF59
:1041F00001204042D3E7C046781000200814002078
:104200000C140020034B10B5002B02D00248FFF71E
:1042100057FF10BD00000000D1400010F8B5C046A7
:1042200001B40248844601BC604700BFDD0D002098
:1042300001B40248844601BC604700BFE50100208C
:1042400001B40248844601BC604700BF190F00203A
:1042500001B40248844601BC604700BFE909002060
:1042600001B40248844601BC604700BF0D02002033
:1042700001B40248844601BC604700BF190F00200A
:1042800001B40248844601BC604700BF59010020C8
:1042900001B40248844601BC604700BFC100002051
:1042A00001B40248844601BC604700BFA10A002057
:1042B00001B40248844601BC604700BF110A0020D7
:1042C00001B40248844601BC604700BF510A002087
:1042D000651A0010911A0010751C00102D23001093
:1042E000F52000109D2200109D1B0010AD1A00103B
:1042F000CD1A0010E11A0010650D0010E91A001027
:104300001D1100102D1A00103D080010054200106C
:084310002D3E0010890200108F
:104318002043001004FF000021632312001242A270
:1043280052617370626572727920506900000000F2
:1043380052503233353020484944204D6F757365EB
:10434800204A6967676C65720000000036353433AF
:10435800323100000A2A2A2A2050414E4943202A95
:104368002A2A0A000A0000004E6F207370696E6CDA
:104378006F636B732061726520617661696C61623D
:104388006C650000486172647761726520616C61D8
:10439800726D20256420616C726561647920636C9C
:1043A80061696D656400000048617264206173731F
:1043B8006572740052656C6561736500626F6F7435
:1043C800325F77323571303830000000322E322EAD
:1043D800300000007069636F000000006D696E694D
:1043E8007573625F686964004D61792032382032E4
:1043F80030323600556E68616E646C6564204952CF
:104408005120307825780A006570202530325820F0
:1044180077617320616C7265616479206176616986
:104428006C61626C6500000043616E277420636FE5
:104438006E74696E75652078666572206F6E206986
:104448006E61637469766520657020253032580086
:104458004C4544000904000009022200010100A0A3
:1044680032090400000103010200092111010001C1
:10447800224D000705810310000A0000050109020A
:10448800A1010901A1000509190129051500250146
:1044980095057501810295017503810105010930B2
:1044A80009311581257F950275088106093815811E
:1044B800257F950175088106050C0A3802158125A6
:1044C8007F950175088106C0C00000001201000236
:1044D80000000040FECA0140000101020301000083
:1044E80006005250D3F07542BC43001006005250EB
:1044F800E182887FC443001006005250ABB360537A
:10450800D443001006005250BBFF3CB6DC430010F9
:1045180006005250861C0302E44300100600525065
:104528005422A29DF043001005005250DE65F46845
:10453800345600100D0A0000D42C00103C2E001038
:10454800C62E0010142E0010262E0010042E001067
:10455800742D0010202D0010142D0010DC310010D7
:10456800C2310010B42F0010FC310010B42F00101D
:10457800AA31001096310010B42F001082310010BB
:1045880096300010B42F0010483400103A34001050
:104598002E340010B42F0010B42F0010183400105F
:1045A8003A340010B42F0010B42F0010B42F0010AC
:1045B800B42F0010B42F0010B42F0010B42F001027
:1045C800E23300106E0B00206E0B0020B80B0020A9
:1045D800D80B0020160C0020280C0020640B0020AB
:1045E8000000000065380010793800107D38001090
:1045F800913800101D390010B53A00100000000075
:104608002E390010183A0010063A0010F43900103C
:104618002E3900102E3900102E3900102E390010B6
:104628002E390010B63900109A390010863900105A
:10463800090052500000000258440010080052506F
:04464800121002004A
:10464C00E8440010F4440010004500100C45001024
:10465C001845001024450010304500104446001049
:04466C0038460010BC
:10467000F0B5C646150000B504001E000268EFF351
:10468000108172B61368002BFCD0BFF35F8F042338
:10469000E3562268002B2BDBBFF35F8F00201060F6
:1046A00081F31088D02212061278002752B2904669
:1046B0009A420ED1002080BCB846F0BDBFF35F8F98
:1046C000176081F310882800310000F009FF0028EE
:1046D000F0D12268EFF3108172B61368002BFCD082
:1046E000BFF35F8F237922687F2BE7D9434602E02F
:1046F000D0231B061B682371BFF35F8F0023136059
:1047000081F310880120D6E7F0B5C64600B50D004C
:10471000040000F0F5FEFA2206000F000023280036
:104720000021920000F0F4FE36184F41002F02DA0B
:104730000126174F7642D0231B061B68002598469A
:104740000AE0BFF35F8F156081F3108830003900F5
:1047500000F0C6FE002818D12268EFF3108172B66F
:104760001368002BFCD0BFF35F8F237922687F2B67
:10477000E7D943462371BFF35F8F0023136081F3B2
:104780001088012080BCB846F0BD0020FAE7C04682
:10479000FFFFFF7F0268EFF3108172B61368002BF2
:1047A000FCD0BFF35F8FFF2303710368BFF35F8FFC
:1047B00000221A6081F3108840BF70470022154B19
:1047C00010B59A60DA601A615A619A61DA611A6208
:1047D0005A629A62DA621A635A639A63DA631A64F3
:1047E0005A649A64DA641A655A659A65DA651A66D3
:1047F0005A669A66DA661A675A679A67DA67F03213
:1048000092000021044800F063FE044B044A1A6041
:1048100010BDC0460000105028190020F01C0020D8
:1048200080011050F0B54E464546DE465746E0B58D
:10483000214B00249E6D012585B0002E22D01F4BF8
:104840009A46012399461E4B984601E0202C19D028
:104850002A00230001342F003240E4B26D00002A08
:10486000F4D0524697654A465B085B0022409B188D
:104870005B01434418009B4600F01EFC002808D151
:10488000BE43E3D105B0F0BCBB46B246A946A04644
:10489000F0BD5B46E0219A78DB8A01A883600023A3
:1048A000C900018001210271437100F025FC5846C6
:1048B00000F0A0FBE4E7C0460000115000301150AA
:1048C000E81800209823F0B5C646C84A00B5D55868
:1048D00080232E009B02102484B01E401D4274D001
:1048E000C34BC44C9A6AC44B00261A603B23E35C5A
:1048F000022B00D14FE17B23E35C022B00D1F3E0DC
:10490000BB23E35C022B00D1FAE0FB23E35C022B28
:1049100000D101E13C23FF33E35C022B00D12DE108
:104920007C23FF33E35C022B00D10EE1BC23FF3379
:10493000E35C022B00D13FE1FC23FF33E35C022B5D
:1049400000D1F5E0AD4BE35C022B00D174E1AC4B40
:10495000E35C022B00D105E1AA4BE35C022B00D102
:1049600075E1A94BE35C022B00D132E1A74BE35C7C
:10497000022B00D1A0E1A64BE35C022B00D171E138
:10498000A44BE35C022B00D1A1E1A34BE35C022B1F
:1049900000D17FE1002E08D1A04B1B78002B04D161
:1049A00080219F4A90338902D150C02269468F4BA3
:1049B00092009B6C80265B058A805B0D012101A81B
:1049C000029300F099FB974CB602EB0600D57FE00E
:1049D00080235B021D4231D01E43012302249846EE
:1049E000844FBB7E002B14D000F0A2FD012800D91B
:1049F00072E0C02200213800920100F001FB380073
:104A000000F0F8FA00F094FD012802D9844B5C66AE
:104A10001C664346FB702037012C22D1C0236A4616
:104A2000DB009380804A02AB03CA03C3012101A8C3
:104A300000F062FB80227A4B92021A6580235B01B0
:104A40001D4210D18023DB011D4223D180231B0294
:104A50001D422FD1AE4200D0C0E104B080BCB846A8
:104A6000F0BD0124BDE700241E43604B1C60FFF72E
:104A7000A5FE80236A465B0093801472012101A881
:104A800000F03AFB8022664B12031A658023DB019B
:104A90001D42DBD01E4380236A46DB009380012148
:104AA00001A800F029FB10225D4B1A6580231B0230
:104AB0001D42CFD01E43A0236A46DB009380012114
:104AC00001A800F019FB8022554B12011A65C1E7BD
:104AD000FFF7A8FE26007BE7544B444A1C66536E42
:104AE0002340A342FBD184E77833E75C002F00D159
:104AF00006E70233E25C002A00D00DE13E00FFE64B
:104B0000B833E75C002F00D1FFE60233E25C002AF5
:104B100000D0F9E03E00F8E6F833E75C002F00D162
:104B2000F8E60233E25C002A00D041E13E00F1E603
:104B3000F933FF33E75C002F00D103E70233E25C77
:104B4000002A00D02BE13E00FCE67933FF33E75C1E
:104B5000002F00D1EAE60233E25C002A00D015E122
:104B60003E00E3E6324BE75C002F00D1F4E602336F
:104B7000E25C002A00D001E13E00EDE63933FF336C
:104B8000E75C002F00D1CBE60233E25C002A00D0C4
:104B9000EBE03E00C4E63833E65C002E00D1AAE626
:104BA0000233E25C002A00D1A5E62000002220307A
:104BB000E25400F04DFA9EE6B933FF33E75C002F74
:104BC00000D1B9E60233E25C002A00D0C4E03E0026
:104BD000B2E6184BE75C002F00D1C7E60233E25C77
:104BE000002A00D0B0E03E00C0E6C04600001150F0
:104BF00000400540E8180020E01800203B020000BB
:104C00007B020000BB020000FB0200003B0300002F
:104C10007B030000BB030000FB030000391D0020E4
:104C20000030115010000200000010500020115000
:104C30007A020000FA0200006B4BE75C002F00D103
:104C400085E60233E25C002A76D13E007FE6674BC0
:104C5000E75C002F00D184E60233E25C002A63D1D6
:104C60003E007EE6624BE75C002F00D188E602330F
:104C7000E25C002A00D0A3E05E4BE35C022B30D163
:104C80005D4BE35C002B27D15C4BE35C022B00D037
:104C90008BE63E005A4BE35C002B00D17AE6FF2303
:104CA0009B00E25C002A00D17FE60022E2541C3B1C
:104CB000E01800F0CDF978E6524BE75C002F00D108
:104CC00059E60233E25C002A16D13E0053E64A4B15
:104CD000E35C002B00D158E6EF239B00E25C002A46
:104CE00075D1464BE35C022B00D05EE6444BE35C9F
:104CF000002B00D159E6D2E70022E2541C3BE01819
:104D000000F0A6F93E0036E620000022A030E25472
:104D10003E0000F09DF9F8E5200000226030E254EA
:104D20003E0000F095F9EBE50022E2541C3BE01850
:104D300000F08EF93E0014E60022E2541C3BE0181D
:104D400000F086F93E0002E60022E2541C3BE01827
:104D500000F07EF93E0009E620000022A130FF307D
:104D6000E2543E0000F074F9E6E520000022213014
:104D7000FF30E2543E0000F06BF9D1E50022E2542E
:104D80001C3BE01800F064F93E00E5E5200000223D
:104D90006130FF30E2543E0000F05AF9C6E52000D1
:104DA0000022E130FF30E2543E0000F051F9C9E545
:104DB00020000022E030E2543E0000F049F9A9E56D
:104DC0000022E2541C3BE01800F042F954E70022B4
:104DD000E2541C3BE01800F03BF982E731000A483E
:104DE000694000F085FBC0463A020000BA020000AC
:104DF0007A030000BB030000BA030000FB030000BD
:104E0000FA0300003A030000FC430010F0B5C64668
:104E100000B50200838A008B8C46011C984200D9A1
:104E2000191CD47880252000461EB04189B2ED00BF
:104E30000D434003284301256C405B1AD47054781D
:104E40009BB29382002C31D16446D568A4014E1EDA
:104E50002D19B0461469002923D0062E32D92B0013
:104E600023439B072ED1631CEB1A022B2AD9002364
:104E70008F08BF00E658EE5004339F42FAD14346F4
:104E8000ED19DB1BE419B94209D026782E70002BEE
:104E900005D066786E70012B01D0A378AB701469D1
:104EA000938A64181461802212021043002B02D1ED
:104EB0008023DB0118436346002B00D0000480BC34
:104EC000B846F0BD0023E65CEE5401339942FAD1B6
:104ED000E5E7C0468368F0B51A680400002900D0F1
:104EE000120C63789205900D002B08D1E38AC31849
:104EF000E382238B834201D90023A382F0BDE368C0
:104F0000890125695E18471E002822D0062F26D960
:104F100001315B18EB1A022B21D92B0033439B077D
:104F20001DD10023120E9200F158E95004339A4229
:104F3000FAD1BF1AAD18B618904209D032782A704B
:104F4000002F05D072786A70012F01D0B278AA7054
:104F50002569E38A2D18C318E3822561C9E7002279
:104F6000B35CAB5401329042FAD12569F1E7C046F7
:104F700010B50400836800211B68FFF7ABFF63686E
:104F80001B685B0002D5238B834200D010BD01213A
:104F90002000FFF79FFFF9E7084A0300126C00208A
:104FA000920703D49A78D209012A00D07047D87E9C
:104FB000023843425841C0B2F8E7C04600001150E1
:104FC00010B5FFF7E9FF00280CD00749074B8C46C6
:104FD000074A9B6A126863449B1A0020C6229A42C1
:104FE0004041C0B210BDC046E0FCFFFF004005409C
:104FF000E018002000238376436103617047C046B8
:1050000010B58368002901D01C682140002A12D005
:105010008024E400114322420DD01A6822420CD1B0
:10502000084A0A401A60084A126C920703D40C23FB
:10503000033BFDD28368196010BD8178034800F0FE
:1050400057FAC046FFFBFFFF00001150104400104C
:10505000436870B50021802504001E68FFF7D6FE66
:10506000124B6D011A6C0543A37892070ED55B06AF
:105070000ED00F4B1E4080239B05334362680021F6
:10508000136020002A00FFF7BBFF70BDDB09F0D0E2
:10509000A38A002BEDD001212000FFF7B7FEA0234B
:1050A000044ADB05324005431343E7E70000115093
:1050B000FFFFFFAFFFFFFFDF70B5857E0400002D0F
:1050C00014D0FFF755FFA38A002B01D1280070BD33
:1050D0002000FFF775FF002803D001230025237768
:1050E000F4E72000FFF7B4FF0025EFE781780148DF
:1050F00000F0FEF930440010F0B5CE46474680B5CA
:10510000437805000E0085B0062B08D86B4A9B003B
:10511000D3589F466A4A13780133DBB21370694B48
:105120001C686269EFF3108172B61368002BFCD023
:10513000BFF35F8FA1612000290000F001FA6269CE
:10514000A369BFF35F8F0021116083F310880028EB
:1051500004D105B0C0BCB946B046F0BD3200697894
:10516000287800F0DDF9F4E70121574B1A788A43DB
:105170001A701A7801318A431A7000225A701A780C
:1051800002318A431A70CAE7504B514F9946514B2E
:10519000002498463A7810E043461B6861015B188A
:1051A000002B06D0DB69002B03D06968287898476C
:1051B0003A780134E4B2944217D8A242ECD8A31A48
:1051C0005B014B44EEE7404B1A78D207C1D504216E
:1051D0001A780A431A70A2E73B4B1A78D207B8D55F
:1051E00004211A788A431A7099E7374F3B785B0796
:1051F0002BD504223B78002193433B706B4606324B
:10520000981D00F065F92B7801AC237005236370BD
:105210002C4B1B6898465A69EFF3108172B61368DD
:10522000002BFCD0BFF35F8F4346404699612100BD
:1052300000F086F943465A699B69BFF35F8F0021EE
:10524000116083F31088002831D1FB78DB0700D48C
:105250007FE76B460A220021981D00F039F92B7870
:1052600001AC2370032363706B686360154B1D688A
:105270006A69EFF3108172B61368002BFCD0BFF39C
:105280005F8FA9612800210000F05AF96A69AB69B3
:10529000BFF35F8F0021116083F31088002800D1D5
:1052A00057E732006178207800F03AF951E7320090
:1052B0006178207800F034F9C7E7C046CC4500108B
:1052C0003A1D0020D816002080160020E845001066
:1052D000381D0020A015002010B5084C2378002BA5
:1052E0000AD18023064807495B051A68C250043377
:1052F0008B42FAD10123237010BDC0463B1D002014
:10530000A41700100001001010B5014B984710BD04
:10531000A5170020064B5A6802609A684260DA6856
:1053200082601A69C2605A6902619B694361704771
:10533000000002400268064B5A6042689A60826828
:10534000DA60C2681A6102695A6142699A617047FB
:1053500000000240034B1A68C0239B009343024A9B
:10536000136070470C8001400C900140054B1A6897
:1053700080239B005340C02292001340024A1360D6
:105380007047C0460C8001400C9001400023F0B5EE
:10539000DE4657464E4645469A46E0B589B00190EE
:1053A0000E00988A45491B8B140098475346814646
:1053B0004349988A1B8B9847534642490500988A6F
:1053C0001B8B98478046FFF787FF02A8FFF7A2FFD5
:1053D000C847A847FFF7CAFF251E22D00823C021CF
:1053E0009C460220490562468B6A1A4018423FD00B
:1053F000631B002D2FD1002A11D1002C11D0C02306
:105400005B059B4602239A46063399465B464A460D
:1054100057469B6A1A401F4242D0002AF6D0002C01
:1054200030D1FFF797FFC047FFF76EFF02A8FFF7E5
:1054300081FF09B0F0BCBB46B246A946A046F0BD0C
:10544000002C2FD1C0225205926A914608224F4665
:105450003A40BF072DD50D2B1BD9002AF0D1C02211
:105460005205926A914608224F463A40BF07F2D44D
:10547000002A04D12B002343002BB4D1D1E72B0009
:10548000002CF9D00B6E013C3370230001362B4306
:10549000F2E7019F013D3B7801370B660197E7E793
:1054A0000025E5E7C0235B051B6E013C3370013628
:1054B00099E72B00002ADFD1DCE7C046494600000F
:1054C00045580000464300007047C04600000000F9
:1054D00001B40248844601BC604700BF3D23001070
:1054E00001B40248844601BC604700BF1914001093
:1054F00001B40248844601BC604700BFBD060010ED
:1055000001B40248844601BC604700BF4915001041
:1055100001B40248844601BC604700BFC5210010A9
:1055200001B40248844601BC604700BF792B0010DB
:1055300001B40248844601BC604700BFB1060010B8
:1055400001B40248844601BC604700BF193D001009
:105550005C440010284300103843001054430010EE
:10556000100000000000000000000100000000002A
:105570000000000000000200000000000000000029
:105580000000030000000000000000000000FF0019
:105590000000000001B5486801318E4600477046A2
:1055A00009380149884701BDA10C00100000000026
:1055B00000000000000000000000000000000000EB
:1055C0008810002000000000000000000000000023
:1055D000503300004C3300005433000052330000BD
:1055E0004D5300004D43000053340000433400008D
:1055F000892600108D270010D5260010A127001045
:105600000000000000010000DC16002010000C006B
:10561000000000000000000000000000000000008A
:1056200000000000FF0000009C15002000000000AA
:045630000000000076
:04000005100001E9FD
:00000001FF
