:020000041000EA
:10000000002008205D0100101B0100101D010010E0
:100010001101001011010010110100101101001058
:100020001901001019010010190100101F01001022
:10003000110100101901001021010010230100100E
:100040001101001011010010110100101101001028
:100050001101001011010010110100101101001018
:100060001101001011010010110100101101001008
:1000700011010010110100101101001011010010F8
:1000800011010010110100101101001011010010E8
:1000900011010010110100101101001011010010D8
:1000A00011010010110100101101001011010010C8
:1000B00011010010110100101101001011010010B8
:1000C00011010010110100101101001011010010A8
:1000D0001101001011010010110100101101001098
:1000E0001101001011010010110100101101001088
:1000F0001101001011010010110100101101001078
:100100001101001011010010110100101101001067
:10011000EFF30580103800BE00BE00BE00BE00BE7A
:1001200000BE00BEF2EB8871103E0010343E00109D
:10013000A001001090A31AE7D3DEFFFF42012110B7
:10014000FF0100003C4D0000793512AB4FF000007C
:100150001E49086006C881F3088810474FF05040D8
:10016000006810B14FF00000F2E70DA40ECC00299A
:1001700002D000F012F8F9E71549164A002000E015
:1001800001C19142FCD11449884714498847144958
:10019000884700BEFDE701C901C29A42FBD3704700
:1001A000343E00101001002050110020744E001049
:1001B0000000082000000820744E001000100820E5
:1001C00000100820000000007047000008ED00E06B
:1001D00050110020341B0020F51A0010A10300105C
:1001E000ED1A0010F8B500BF08B5034B1BB1034969
:1001F0000348AFF3008008BD00000000E01A0020B3
:10020000AC3B001038B5192000F0DAF94FF00105C9
:10021000192345EC44304FF0000444EC40300220F8
:1002200000F0CEF9022345EC443044EC40301D2070
:1002300000F0C6F91D2345EC443044EC403038BD95
:1002400070B551498CB0514803F0F2F906210446CB
:10025000102000F097F901234FF48035102200217F
:1002600000934A4803F05EFA4FF00051E31C0495F6
:10027000E501474A45EA0335052025F0C045CDE9AB
:100280000621059501F06AFA424B9FED437AA3FBE4
:1002900000235B0D07EE903AF8EEE77A77EE877A67
:1002A000BCEEE77A17EE103A9AB2002A68D007EE51
:1002B000102AB8EE477ADFED396A77EEC77A67EE33
:1002C000A67AFCEEE77ACDED037A9DF80C301B029E
:1002D0002E4E43EA0243002122460493304604ABEB
:1002E00003F066FA3368062143F0010316203360F9
:1002F00000F048F90123162219460093304603F016
:1003000011FA4FF000524FF48031214B0520CDE916
:100310000A32CDE9081501F021FA1E4B9FED1E7A35
:10032000A3FB00235B0D07EE903AF8EEE77A77EE39
:10033000877ABCEEE77A17EE103A9BB213B307EE5A
:10034000103AB8EE477ADFED156A77EEC77A67EEB6
:10035000A67AFCEEE77ACDED037A9DF80C00000258
:100360000A4D40EA0340089008AB22460121284686
:1003700003F01EFA2B6843F002032B600CB070BD33
:100380001346A5E71846EBE7AC3B001000002050F1
:100390000000067083DE1B430000003B000080432A
:1003A0002DE9F04F87B003F013F90021084602F061
:1003B0009FFFFFF727FFFFF743FF19224FF00003CE
:1003C00043EC4020022243EC40201D2243EC40201D
:1003D000474A536813F48033FBD1454913614B6896
:1003E00013F40033FBD19A461F4601269846DFF8E6
:1003F00004B1DFF8049105934B6100214FF0FF3009
:1004000002F01AF801F076F8002942D04FF47A721F
:10041000002303F089FB0446002002F077FD054627
:10042000002832D0A4EB0A03632B13D9002E34D05A
:100430000022012311461046CDE90122009202F06C
:1004400081FDDBF8003086F00106E31AB3F5FA7F90
:100450002ED2A246CFB1059BE41A4F2C15D91923F1
:1004600048EC4030022348EC40301D2348EC40303B
:100470001F494B6813F48033FBD11D4A0B6153684D
:1004800013F40033FBD11F465361012000F040FFFD
:10049000B3E7A9FB0034A409BEE74FF0FF333246AF
:1004A00031463046CDE90166009602F04BFDC8E7C3
:1004B000CBF8004019224FF0010343EC4020022208
:1004C00043EC40201D2243EC402009494B68DA03ED
:1004D000FCD44FF02053064A0B6153689B03FCD4B5
:1004E0004FF0205305942F46A2465361CDE700BF3D
:1004F00000002050D41A0020D34D6210704700BF76
:100500000020704700487047683D00100048704761
:10051000183D001000487047F43C001038B548B949
:10052000164B174D1A684FF4417312886A801448AD
:100530002B8038BD03281FD8104B114D53F8204095
:10054000204603F06BFAC0B21F28844628BF4FF044
:100550001F0C50B100232A46601E013310F8011F02
:10056000DBB29C4522F8021FF7D80CF10103DBB285
:100570005B0043F44073DAE7002038BD9810002098
:10058000C014002010B44FF480740C4B53F820209A
:1005900003EB8003C00082F0400200F1804003F5CD
:1005A000805C02F0C00200F5203003F54053CCF827
:1005B000002041601C605DF8044B704704800340DC
:1005C00030B44FF0000343EC440043EC40000525F9
:1005D0004FF480740B4BC20053F8201003EB8000E3
:1005E00081F0400102F1804303F5203301F0C002A5
:1005F00000F5805100F540500A605D60046030BC39
:10060000704700BF048003400FB400B583B0049C62
:10061000074801F0A9FB3CB105A92046019101F072
:100620004BFA044801F0A0FB012001F05DFA00BF85
:10063000F03B0010003C0010EFF3108072B6064B48
:10064000D3E8CF1F01220029FAD1C3E8412F0029A6
:10065000F6D1BFF35F8F7047471500200023034A90
:10066000C2E88F3F80F31088704700BF4715002015
:1006700070B58646EFF3108572B6124CD4E8CF6F92
:100680000120002EFAD1C4E8460F002EF6D1BFF3A8
:100690005F8F4FF0010CC80801F007030CFA03F359
:1006A0001EF800C01CEA030608D14CEA030C0EF841
:1006B00000C0C4E88F6F85F3108870BD1046FFF747
:1006C000A3FF00BF47150020F8B5EFF3108772B6FF
:1006D0001C4ED6E8CF5F0124002DFAD1C6E8454F65
:1006E000002DF6D1BFF35F8F9A421BD8012502E09F
:1006F0000132934222D3D40810F804E002F0070C30
:1007000005FA0CFC1EEA0C0FF2D14EEA0C0E00F8B2
:1007100004E010460023C6E88F3F87F31088984214
:1007200007DBF8BD0023C6E88F3F87F310884FF042
:10073000FF300029F5D00698FFF766FF4FF0FF3035
:10074000E8E700BF47150020044A1078431CDBB2DD
:10075000182B28BF10231370704700BFA81000206B
:1007600010B5054C82B001461F231822009403489F
:10077000FFF7AAFF02B010BD043C0010981600203D
:100780004FF0E022936843F000539360704700BF3E
:100790000021044B03F12002C3E88F1F0133934271
:1007A000FAD170473C1500204FF0E0234FF0803223
:1007B000C3F80024C3F80424C3F80824C3F80C24A5
:1007C000C3F81024C3F81424C3F81824C3F81C2455
:1007D000C3F82024C3F82424C3F82824C3F82C2405
:1007E000C3F8302462B67047012300F01F02934023
:1007F000400941B1800000F1604000F56140C0F85F
:10080000803103607047024A203042F82030704740
:1008100000E100E0F8B50D46EFF3108772B6124E16
:10082000D6E8CF2F0123002AFAD1C6E8423F002A9A
:10083000F6D1BFF35F8F0D4B00F110049B680C4A9B
:1008400053F82430934203D0994201D001F01CF8B0
:10085000064B9B6843F82450BFF35F8F0023C6E824
:100860008F3F87F31088F8BD4515002000ED00E0AC
:10087000110100102DE9F04F81468B46164683B0DA
:10088000EFF3108372B6DFF8D0A10093DAE8CF1F40
:1008900001230029FAD1CAE8413F0029F6D1BFF36C
:1008A0005F8F664B93F90040002CC0F2A080644D2E
:1008B00004EB440705EB870898F8061009F11009C6
:1008C0001970604BBF009B6853F829006300411BFF
:1008D0002F292FD95C49884240F0A4801C445B4BEF
:1008E00002372F44043BDB1BC3F34A036FEAC343C5
:1008F0004FF421416FEAD34325F8241005EB84041B
:1009000063804BF60153A380FF2348F00100E6719A
:10091000C4F808B0A3714B4B9B6843F82900BFF3A0
:100920005F8F0023CAE88F3F009B83F3108803B0DA
:10093000BDE8F08F20F0010E9EF80710B1422ED8CE
:100940004FF42143EB53414BB91C2944043B04377A
:100950005B1A2F44AEF10401C91BC1F34A043C49A0
:10096000C3F34A030B432143A8F804103949A8F8FC
:1009700002304AF6AA2073465B1B5B415843000DC8
:1009800088F8076088F80600C8F808B048F0010049
:10099000CEF80010BFE7D179B1422ED996469EF924
:1009A00006C00CEB4C02BCF1000F05EB8202F2DA40
:1009B0004BF601510EF10402A8F10407BF1AC7F368
:1009C0004A076FEAC7476FEAD7478EF8064003EB3E
:1009D0000408204C05EB8803AEF8047045F8284065
:1009E000998083F806C0DE71C3F808B093E700F081
:1009F0004BFF124B93F9004059E7724632F8041F3F
:100A0000490514D44915023102EB410101916FF0FF
:100A10000701C91B019F491B3944C1F34A0141F435
:100A20006041C9E7019300F02FFF019B56E701F5F4
:100A3000FF1101F5FF511F31E4E700BF331B002018
:100A4000AC10002000ED00E011010010DC100020CF
:100A500000E0FFFF01488047451500202DE9F04FD9
:100A600083B0EFF3108A72B6714ED6E8CF2F012310
:100A7000002AFAD1C6E8423F002AF6D1BFF35F8FC1
:100A80006C4B00F110089B686B4A53F82850954254
:100A900045D08D420C4650D0684FEB1B2F2B3ED8D3
:100AA00001214FEA50194FEA890909F1604909F516
:100AB000614900F01F0301FA03F0D9F80030C9F8CA
:100AC000800000EA030BBFF35F8FEFF30581C9B22B
:100AD000002934D0884505D0CDE9001000F0D4FEBF
:100AE000DDE9001025F0010EDEF808C0644505D1EF
:100AF00089E0D3F808C0644531D09E469EF90620AF
:100B000002EB4203002A07EB8303F2DA644561D06B
:100B1000BBF1000F20D0C9F88001C9F80000454B97
:100B20009B6843F82850BFF35F8F0023C6E88F3FD0
:100B30008AF3108803B0BDE8F08F1546EFE725F083
:100B4000010EDEF808C06445D8D19EF90640734610
:100B5000002C08DA154646E0C9F88000DFE793F973
:100B60000640002C37DB04EB440C07EB8C0C9CF8A4
:100B70000710DCF80820D9719A609CF90620610002
:100B8000002A9A713DDBBCF804E05FEA4E5E05D5B1
:100B90000EF5FF1E0EF5FF5E0EF11F0E6FF0070C37
:100BA0000A194FEA6E5E920002EB4E0208323A4496
:100BB000ACEB030C6244C2F34A026FEAC2426FEA32
:100BC000D2429A801E4B21441A7807EB81011C7097
:100BD0008A719DE77346D9B9FF228EF806204BF63D
:100BE0000152AEF80420164C4AF6AA2294F800C02E
:100BF0001946C91B49414A43120D83F806C02270A9
:100C000086E7104ADDE79EF906407346002CAADA13
:100C10000D4A0E4CD21A083AC2F30A316FEA01515A
:100C20006FEA115144EA5202DA80998070E700BFFE
:100C30004515002000ED00E011010010AC1000206F
:100C4000331B002001BDFFFFE610002000F8FFFF6E
:100C5000F0B5EFF30585EDB2EFF3108C72B62649CF
:100C6000D1E8CF2F0123002AFAD1C1E8423F002A60
:100C7000F6D1BFF35F8F214E40F0010EB4684AF603
:100C8000AA2354F825701E4A0446A41A64416343FB
:100C90001B0D77455BB21BD092F906409C421CD0DD
:100CA00092F912409C4223D092F91E409C4221D0DE
:100CB00092F92A409C4208BF03240FD0114A002415
:100CC000157813708571C1E88F4F8CF31088F0BDD3
:100CD000B2680D4C42F82540F0E7002404EB4404D0
:100CE00002EB8402FF2494714BF601549480E5E7F3
:100CF0000124F3E70224F1E74515002000ED00E0B0
:100D0000AC100020331B002011010010014B0B44DC
:100D1000036070473C15002070B5104C104DAC427C
:100D20000ED2FF26236863B1FFF70EFD0146204671
:100D3000FFF7ECFFA680BFF35F8F0834AC42F1D31E
:100D400070BDFFF701FD01462046FFF7DFFF26716A
:100D5000BFF35F8F0834AC42E4D370BD481100206C
:100D60005011002010B50446FFF7EEFC0146204666
:100D7000FFF7CCFFFF232371BFF35F8F10BD00BFD0
:100D800010B504460120FFF7EBFC034B034423603E
:100D9000BFF35F8F10BD00BF3C1500200D4B1A68DC
:100DA000EFF3108172B6D2E8CFCF0120BCF1000F73
:100DB000F9D1C2E84C0FBCF1000FF4D1BFF35F8F43
:100DC00000221B68C3E88F2F81F3108840BF0020EA
:100DD00000217047201B00202DE9F04F2DED028BE4
:100DE00085B0EFF30583DBB2103B9A0818BF0122F0
:100DF0004FF0010103F0030B18BFAF4DAF4B08BF1D
:100E0000AF4D0BEB820253F8226001FA0BF205F5AD
:100E100041539FEDA78B01925A602FE0B3881C04C9
:100E200040F19380B379002B40F0DD80B6F90820C3
:100E3000002AC0F21E81736902EB420203EBC20377
:100E4000D3E90247B7F1FF3F08BFB4F1FF3F0ED02F
:100E500005EB8B01AB6A0A69D21AE31A934205D3F8
:100E600001232A6A03FA0BF3134200D10C612846CE
:100E700000F038FBA042B941C0F2FB80B6F908305F
:100E8000019A002B0093EA63C8DBD6F8148003EBC9
:100E90004309284608EBC907D7E9024A00F022FBBC
:100EA000A04271EB0A01B9DBBAF1000FC0F2C380B6
:100EB000D7E90431834A934200F0ED807A88B6F98D
:100EC000080092B242EA0040984702460B4652EAB6
:100ED000030100F0B080002B80F2D180B4EB020E51
:100EE0006AEB030A38F93930C7E902EA002B95DBCF
:100EF000716903EB430201EBC202D2E90270BE4505
:100F00007AEB000C4FEA430288DBB4462CF8083F2A
:100F100006E003EB430001EBC0005A00D0E9027089
:100F2000BE451A447AEB000001EBC20404DB31F940
:100F30003230A446002BECDA28F83930009BACF8AC
:100F40000030B3881C043FF56DAF3369EFF31082B6
:100F500072B6D3E8CF0F01210028FAD1C3E8401FB1
:100F60000028F6D1BFF35F8F4FF6FF74B0880023DF
:100F7000316900B2B480C1E88F3F82F31088984293
:100F8000FFF650AF0746A946746906F1080807EB5B
:100F9000470E04EBCE03D3E90250B6F90830C4463D
:100FA000002B13DBB246009704E034F93630944648
:100FB000002B09DB03EB430604EBC602D2E9027106
:100FC000BD4270EB0101F0DA5646009FACF80070AC
:100FD00034F93E7024F83E30002FD8DAB3794D460C
:100FE000002B3FF423AF0023B371B6F9083006F1AC
:100FF0000808581C3DD01A46776903E08046591C02
:101000003FF416AF03EB430107EBC100B0F802C099
:101010001C461CF4004F9E4637F93130EED0944206
:1010200080ED028B05D0A8F80030328927F83120F6
:1010300034817246E3E738F8393033813369EFF3AE
:10104000108272B6D3E8CF0F01210028FAD1C3E88D
:10105000401F0028F6D1BFF35F8F7388316928F8ED
:101060003930009B73800023C1E88F3F82F31088E2
:10107000D4E640BF05B0BDEC028BBDE8F08F28463A
:10108000CDE9022300F02EFA029A039B10EB020E28
:1010900043EB010A26E708460B69029198470028AE
:1010A000C9D00299D1E9002311E700BFAFF3008056
:1010B000FFFFFFFFFFFFFFFF00800B40F81A00203B
:1010C00000000B40D90D00102DE9F84F364C256972
:1010D0002DB1BDE8F84F0A213448FFF717BEDFF8FD
:1010E000E4800321404600F0EBF90326C4F80C80AD
:1010F000FFF72AFB4FF0504C2D4B26700344236121
:10110000DCF800300F216370636961801D834FF04C
:101110000405A3F878504FF00505A3F890504FF060
:101120000605A3F8A8504FF007050E214FF6FF72F1
:1011300008274FF00A0EA3F8C0504FF001094FF0F6
:101140000C0C4FF0020B4FF0090A0D204FF00B056D
:10115000A3F868111749A280A3F808E1A160A3F8D9
:1011600048B0A3F8F0A0A3F82051A3F838C1A3F821
:101170005001A3F83090A3F86060A3F8D8701A80EB
:101180000D4B3046C8F820700C49DC60FFF742FB7D
:1011900049463046FFF728FB094B0A211F640348E4
:1011A000BDE8F84FFFF7B2BDF4100020201B00206F
:1011B0003C150020FFFF1000F81A0020D90D001088
:1011C00000200B4000000B400146F0B50069EFF332
:1011D000108772B6D0E8CF5F0124002DFAD1C0E8A5
:1011E000454F002DF6D1BFF35F8FB1F902E04C6996
:1011F0000EEB4E0CBEF1000F4FEACC05086904EB74
:10120000CC0C3CDB665B4E800026C0E88F6F87F31A
:101210001088BCF80200CCE902230130C0F30E00B4
:10122000012838BF0120059BACF80200CCF8103033
:10123000069B40EA0E40CCF814300B69EFF31082A5
:1012400072B6D3E8CFCF0127BCF1000FF9D1C3E8C4
:101250004C7FBCF1000FF4D1BFF35F8F8B886353D9
:10126000A1F804E00B69C3E88F6F82F310880122B4
:10127000CB68097803F501538A405A60F0BD00231A
:10128000C0E88F3F87F310884FF0FF30F0BD00BFFC
:1012900003464089B0EB214F37DD58690A1402EB51
:1012A000420210B500EBC2001C69EFF3108C72B65D
:1012B000D4E8CFEF0122BEF1000FF9D1C4E84E2FE0
:1012C000BEF1000FF4D1BFF35F8F428889B292B2B2
:1012D0008A4207D000221B69C3E88F2F8CF3108845
:1012E000002010BD42F40042428001210022186912
:1012F0009971C0E88F2F8CF310881C78DA68084643
:1013000002F50153A140596010BD0020704700BF95
:101310002DE9F04182B0064600F0ECF84FF47A7304
:1013200004464FF0FF306FF00042E6FB0341A0425D
:1013300072EB01033ABF044615460D46A61F45F160
:10134000FF37B44275EB07033CBF0026374600F079
:10135000D1F8301A67EB0101012871F1000106DABA
:101360002046294602B0BDE8F04100F0FBB800F08D
:10137000C1F8864267EB010100290ADB0021174B07
:101380003246009316483B460191FFF71DFF01309E
:10139000E6D04FF0000C134A1349536A9F4204D819
:1013A000906AB042DCD29F42DAD10B68EFF3108032
:1013B00072B6D3E8CF8F5FF0010EB8F1000FF8D10D
:1013C000C3E848EFB8F1000FF3D1BFF35F8F0B68AC
:1013D000C3E88FCF80F3108820BFDEE79D0D00109B
:1013E000F410002000000B40201B00202DE9F043EA
:1013F00006460D4683B0EFF30584E4B23CB12D4BB5
:101400005A6AAA421CD2002003B0BDE8F0832A4FDA
:10141000D7F80C9097F80080484600F063F808F180
:10142000040859F828301B1A301A65EB010198425C
:1014300071F1000110DB20BF1E4B5A6AAA42E2D3B1
:1014400014BF012400249B6AB34234BF204644F0F9
:10145000010003B0BDE8F08300F04CF8864265EB74
:101460000101002914DB154B3846CDE90034324622
:101470002B46FFF7A9FE011E0ADD0E4B5A6AAA424F
:1014800016D39B6AB34211D30B48FFF701FFB6E7AF
:10149000084B5C6AAC42B6D3641B18BF01249B6A3C
:1014A000B34234BF204644F00100ADE7AA42EBD17D
:1014B00020BFE9E700000B40F41000209D0D001054
:1014C00010B4054B054C064AA04214BF1846581CE0
:1014D0005DF8044BFFF7CCB89C16002000800B4051
:1014E000203C00100346416A0A46986A596A8A42BB
:1014F000FAD17047034B596A0A46986A596A914271
:10150000FAD1704700000B4030B4154A536A9C462C
:10151000946A536A6345FAD1021959414FF00005A4
:1015200028BF01250E4B5B6AB5B15A1C08BF1A468D
:1015300008D04FF0FF310A460948436A8B42FCD37A
:101540008B4207D1064902E0486A984202D1886A74
:101550009042F9D330BC70479942EDD8F0E700BF14
:1015600000000B40074A536A9942FCD8994207D1C0
:10157000044B02E05A6A914202D19A6A9042F9D829
:10158000704700BF00000B40F8B5054606200E4628
:1015900000F0E4F8002842D0354A3648954214BF9E
:1015A0004FF080624FF00062334B344902601A60A2
:1015B0008C6832EA0404FBD12D4B4FF48071EB1A96
:1015C000B3FA83F32E4A5B09062022F8131000F0C9
:1015D000C5F8C300B3FBF6F30133DA0920D1402686
:1015E00001216962AA622F6BFB0722D42B460022DD
:1015F00053F82C1F062003F5805422602F6300F05F
:10160000ADF840F2013103228000B0FBF6F0EB6A46
:1016100083F0700303F07E0323602963AA64F8BD9E
:101620004FF6FE718A421BD922464FF6FF71154EC6
:10163000D7E740F2013205F540531A636B6AAC6A92
:10164000062004EB831400F089F80F4BA402A3FBDF
:101650000023DB0A0021B4FBF3F0FFF755FFC5E7D9
:10166000C3F34503114603EB82161A46B9E700BFE0
:10167000008007400020024000300240000002408D
:10168000241B0020C0FF3F00757B2B8F00EB400C1C
:101690004FEA8C0C0CF1804C0CF5803CF0B51646F2
:1016A000DCF80420051FB2F5803F38BF4FF48032CC
:1016B000EDB238BFCCF80420012D2AD94FF40067D1
:1016C000254C0CF54052176054F82020B2B9DCF8D4
:1016D0000020012D82EA461202F0E0020CF580564D
:1016E00032602AD94FF4006144F820304FF480333F
:1016F0000CF500521160CCF80430F0BD6769B7FBFF
:10170000F2FE0EF1010E0EEB4E0EBEF1030EFCD2F8
:10171000DDE70129D2D103240CF540521460DCF836
:101720000820D207FBD5DCF800200B4C82EA4612D9
:1017300002F0E0020CF5805632600122DCF8005025
:101740004D4005F00305356002FA01F1DCF8082090
:101750000A42FBD0C6E700BFA0160020014B53F899
:1017600020007047A016002070B4039D04682D036C
:1017700045EA03451B4B002CB3FBF1F3B2FBF3F638
:101780001FDB194A194B904214BF4FF480424FF4AB
:101790000042174C1A6003F580531A60A36832EABE
:1017A0000303FBD1212200F540530433016086601E
:1017B0001A600268002AFCDA0822C5601A6070BC50
:1017C0007047036803F03F038B42DAD18368C3F3A9
:1017D0000B03B342D5D1C36803F4EE23AB42D0D19F
:1017E000EDE700BF001BB70000800540002002406D
:1017F00000000240012300EB4000800000F1804027
:1018000000F5841041600360704700BF0023DB8A4D
:10181000002242E800F2520201D4102118470421AC
:10182000184700BF034AD2F82838002BFBD0BFF37B
:101830005F8F704700000E400021044B044ABFF345
:101840005F8F43F8041B9342F9D170470C080E4098
:101850002C080E4010B44FF48D704FF42A64064AE1
:10186000064B07491460D06019605368002BFCDAFE
:101870005DF8044B704700BF0080044000A00440A6
:1018800000B0FA00704700BF08B50148FEF7BCFE83
:10189000443C001038B5054C054DAC4204D254F818
:1018A000043B9847AC42FAD338BD00BF603B001000
:1018B000A03B001010B40748074C084B084A0949E0
:1018C00004601A608B6832EA0303FBD15DF8044BB5
:1018D000704700BF002002407F3BEFEF0030024026
:1018E000F6FFF30300000240044BDB6CB3F5004F3E
:1018F00003D14FF48022024BDA647047000011508C
:10190000002011504FF0E022044BD2F8881D0B4309
:10191000C2F8883D10EE3004704700BF030330006A
:101920006FF06041044B054A19609368DB4333F064
:101930006043FAD1704700BF00300240000002400F
:1019400010B545F25320FFF761FFBDE81040034694
:101950000420184710B545F25320FFF757FFBDE8A4
:101960001040034601201847FEF712BF1449154BDB
:1019700070B55C1AA610442E324628BF4422124D80
:101980009200284601F0D4FFB4F5867F13D80F4AA1
:10199000C6F1440012D02B19410803EBC101C3E981
:1019A000002208338B42FAD1C30704D520F001008E
:1019B000304445F82020064B9D6070BD4320F8E779
:1019C00000000010100100100000002011010010A4
:1019D00000ED00E0002370B52B4C82B0C4F88430D9
:1019E000FFF738FF0122294BDA63636C012BFCD12E
:1019F0000321264A244B11639C6B012CFCD1022647
:101A0000052521460523224A22480096FFF7ACFE11
:101A100021462B46204A21480095FFF7A5FE0022CB
:101A2000042031461E4BFFF731FE21462846002296
:101A30001C4BFFF72BFE0022082011461A4BFFF724
:101A400025FE002209201146174BFFF71FFE00223A
:101A500006201146134BFFF719FE0022114B0720F9
:101A60001146FFF713FE0420FFF778FE00240F4B0A
:101A7000A3FB0035AD0CE0B229460134FFF7BAFEF6
:101A8000062CF8D102B070BD0000014000300140CA
:101A9000002F685900000540008C864700800540F3
:101AA000001BB70080D1F008006CDC0283DE1B4312
:101AB00000B9704700F016B910B5094B84B01C6826
:101AC0004CB1034600914FF0FF3203A90548A047EF
:101AD000012004B010BD00F047F9204604B010BD4D
:101AE000D81A0020B11A001000BEFDE708B5FFF7B4
:101AF000FBFF00BF38B5064C064DFFF7CBFEAC42EE
:101B000004D254F8043B9847AC42FAD338BD00BF26
:101B1000A03B0010AC3B0010036808461146184774
:101B20002DE9F0411546427D07468846002A46D0F9
:101B3000002D1DDD0B780A2B23D0012D4FF0000C5A
:101B400018D04646012416F8012F21460A2A04F12E
:101B5000010422D0A542F6D165450BDC08EB050354
:101B600013F8013CA3F10D03B3FA83F35B093B7552
:101B7000BDE8F0813B68A5EB0C0108EB0C00984731
:101B8000ECE7037D002BD8D1036802210F4898476A
:101B9000012DE3D04FF0010CD3E716F8013C0D2BDB
:101BA000D8D08C4508EB0C00A1EB0C0101DA3B68A6
:101BB0009847022105483B689847A446CAE729464A
:101BC00040463B68BDE8F041184700BFD03D0010DB
:101BD0002DE9F04782B00D4691461C460646FFF7B8
:101BE00089FC4FF0FF3C6FF000472E4A821841F10C
:101BF0000003944577EB03013CBF62463B462A480D
:101C000001F0A6FF6B1C804640D00CB3274F284B39
:101C10001C68B4B1B9F1000F1CD1DFF89C9001E051
:101C2000246974B12368002BFAD0D9F800300BB1C5
:101C30009C42F5D120462A463146B8472469002CFB
:101C4000F0D1B8F1000F26D1284602B0BDE8F087E8
:101C5000184FDCE74FF00A0ADFF85C9002E02469D5
:101C6000002CEED02368002BF9D0D9F800300BB14E
:101C7000A342F4D12A4631462046B84701222046E5
:101C80000DF107018DF807A0B847E8E7304601F0ED
:101C9000C5FE0546B9E7044801F04AFF284602B0F0
:101CA000BDE8F08740420F0048110020211B0010C2
:101CB000C8160020191B0010D0160020084A13680F
:101CC00023B90AE003F110021B6933B18342F9D151
:101CD00029B9186910601961704701B11060704727
:101CE000C8160020F0B583B006468DF80700FFF750
:101CF00001FC4FF0FF356FF00044174A821841F1A4
:101D00000003954274EB03013CBF23462A46134867
:101D100001F01EFF124B07461C689CB1114D01E0FB
:101D200024697CB12368002BFAD02B680BB19C424C
:101D3000F6D1204601220DF10701FFF7F1FE2469DB
:101D4000002CEFD117B9304603B0F0BD034801F0C5
:101D5000EFFE304603B0F0BD40420F0048110020B6
:101D6000C8160020D016002038B5044601F056FEF3
:101D7000012305461A4620462946FFF729FF084B4E
:101D80001C682CB163682BB198472469002CF9D1E9
:101D9000284638BD2469002CF4D1284638BD00BF40
:101DA000C8160020B1F1000C1DDD0F4A0F4B126860
:101DB00030B5D31AB3FA83F30D240D4D5B09411EE0
:101DC00035F913E08C4411F8010F864506D093696C
:101DD0009B06FCD461451060F5D130BD93699D062A
:101DE000FCD41460F3E770472C1B002000800740F0
:101DF000241B0020224BB1F1000C10B41C682EDD16
:101E0000034600201F4A591E12689369DB0617D447
:101E100001309369DB06FCD41368844501F8013F67
:101E2000F3D14CB150211346916353F8342F02F093
:101E3000380203F580531A6060465DF8044B704722
:101E40004CB150211346916353F8342F02F03802FD
:101E500003F580531A6078B15DF8044B70475CB1AC
:101E6000084B50211A681346916353F8342F02F03F
:101E7000380203F580531A606FF00200DDE700BFFF
:101E8000901600202C1B0020054B1B6833B100214D
:101E9000044A05481268006891631847704700BFFC
:101EA000901600202C1B002094160020024B1A686C
:101EB00093691B07FCD470472C1B0020F8B51C4FFE
:101EC0001C4D3A681C4EAA4214BF21252225044607
:101ED000D6F800C018B1BCF1000F10D0F8BDBCF1AD
:101EE000000FFBD0014690632846FEF77DFC284694
:101EF0001249FEF7B3FD124B34601C60F8BD0B466F
:101F00000F4A0E49306028461360FEF783FC01211A
:101F10002846FEF769FC3A6850211346916353F84E
:101F2000342F02F0380203F580531A60F8BD00BF69
:101F30002C1B00200080074090160020891E0010F6
:101F40009416002070B5104E0D463060101E1C46D1
:101F500006DB10F0020F0CBF02210B21FEF712FB73
:101F6000002C07DB14F0020F0CBF02210B212046CE
:101F7000FEF708FB29463068FFF706FBBDE8704016
:101F800001210248FFF79ABE2C1B00200C110020F3
:101F900070B500F02DF90C234026194CFF22A367E1
:101FA0000E201849FEF766FC32460021164801F063
:101FB00059FC0125002380211348144A41844570AF
:101FC0000683068782604360136042F8043C80F811
:101FD000213080F83B3043620D4B4FF00056C36018
:101FE000C362803B836201F0ABFD4FF4803209494C
:101FF000094B25642846E664C4F89010DA6470BD85
:10200000000011504D030020D41600208400105011
:102010000001105010D001000020115001210E20AD
:10202000FEF7E2BB00220248114600F001B900BFF2
:10203000F4160020044B197021B14FF40032034B09
:10204000C3F89020704700BF311B002000201150C2
:102050000B785B0602D14B78052B00D070474B887C
:10206000014ADBB21360704700001150CB782DE9B4
:10207000F04103F0030EBEF1010FC3F301005BD08A
:10208000002791F802C0344C0CF07F02560089887A
:1020900006EBDC1304EB43134FEADC15D876C1F3EF
:1020A0000A0185F0010083F802C019835870DF70BF
:1020B000D3008DBB2948043304EB821C03EB0008DA
:1020C000CCF808801F5082B3254BD2001344CCF8C3
:1020D0000430244B3F311A6821F03F01BEF1020F5A
:1020E00008BF4900114419601F4B771904EB4717CB
:1020F0009942FA602BD82E4404EB4613D97E82F025
:10210000A04282F480125B6842EA816242F000429F
:102110001A600120BDE8F081104804EB821C0344E2
:10212000CCF8283040F832704AB900220F4904EB4D
:102130004513D9605A60ECE70020BDE8F081D20079
:1021400002F1A04202F58012CCF82420C1E7FFF78B
:102150009BFBFA68CFE700BFD41600208000105028
:1021600004001050DC1A0020FF0F10500001105026
:1021700001F0E6BC8C4608B5114607481A460CF03B
:102180007F034FEADC1C0CEB430C00EB4C1000F01F
:102190004FF8012008BD00BFD416002011F07F02C7
:1021A00005D100290CBF02200120064B9866C90901
:1021B000054B01EB420003EB40104FF4006200219D
:1021C00001F0C2BC00201150D416002011F07F0392
:1021D00000D17047002205485B0003EBD11300EBF0
:1021E00043106FF40061C27001F0AEBCD416002041
:1021F0004FF0805209480A4908B50A4B02600A604C
:102200009968C94311F08051FAD14FF480520648C1
:1022100001F028FB0922054B5A6708BD0020024047
:102220000030024000000240000010500000115039
:1022300000234FF0010C10B580F81AC08282C382CF
:102240000161044601F078FC20B14FF40032074BE5
:10225000C3F89020204601F07FFC10B101232377C2
:1022600010BD2046BDE8104001F05ABC00201150BE
:10227000002070472DE9F0414FF000081C4D044646
:1022800042462B781B4F1C4E0DE0336813EB421374
:1022900024D0DB682046984708F101082B785FFAC4
:1022A00088F2934206D39342A2EB0303EDD807EBE7
:1022B0004313EEE754220021104801F0D3FA4FF007
:1022C000FF330E482022041D4360C4E90133E3605C
:1022D000FF21BDE8F041143001F0C4BA4FF0E02313
:1022E000D3F8F03DDB0700D500BEBDE8F08100BFAC
:1022F000301B0020D43D0010681400206815002019
:10230000704700BF704700BF002070470020704733
:1023100000207047704700BF704700BF704700BF84
:10232000704700BF024B5878003818BF0120704733
:1023300068150020024B1878C0F38000704700BF7A
:10234000681500202DE9F047DFF8E49099F8003097
:10235000FF2B55D10D4600293DD0002154220646C1
:10236000294801F07FFA0022284C294B20461A7098
:10237000FEF7F8FC274B28481C60284CFEF700FDB0
:10238000204601F009F9264A264B146023B126485D
:10239000AFF30080254B18604FF0000A224C5346E3
:1023A0002278DFF89080214F0DE03A6812EB43135A
:1023B00011D05B687BB198470AF1010A22785FFA75
:1023C0008AF3934211D89342EFD39B1A08EB43133D
:1023D0005B68002BEFD14FF0E023D3F8F03DDB0733
:1023E00000D500BE0020BDE8F0872946304689F8B8
:1023F0000060FFF7CDFD0028EDD03046FFF70EFE60
:102400000120BDE8F08700BF68150020601500209E
:10241000321B0020BC1500203811002024110020A0
:10242000C015002000000000301B002068140020B0
:1024300040110020D43D00102DE9F04FDFF8ACA290
:102440008BB09AF80030FF2B00F0E880A04CA14D33
:10245000DFF894B2A04E27687B69EFF3108272B662
:10246000D3E8CF0F01210028FAD1C3E8401F00288C
:10247000F6D1BFF35F8FBA61384607A900F0F0FFCD
:1024800000237A69C2E88F3FBB6983F31088002874
:1024900000F0C4809DF81D30013B072B00F26A83D9
:1024A000DFE803F0A1AB8F9788350A04089B002B67
:1024B000D1D009989847CEE79DF8201001F07F070A
:1024C00005EB470000EBD11090F8343023F0010306
:1024D00080F8343090F8343023F0040380F834303E
:1024E000002F00F09E80027D9BF800309A4280F021
:1024F0008D807A4B1B6813EB421300F088809F6934
:102500009DF82120099B9DF81C00B847A3E733786C
:10251000002B7CD03378013BDBB23370337803F08F
:10252000FF00002B97D16B4F9DF81C903B7843F038
:1025300001033B7097F8343060F3000387F83430C0
:1025400097F8343060F3820387F8343097F83530E9
:1025500060F3000387F8353097F8353060F3820375
:1025600087F8353000F036FC9DF8203003F060022B
:10257000602A66D0402A76D003F01F03012B00F0BA
:10258000B780022B7BD0002B5BD1202A00F0DE81AC
:10259000002A56D19DF82130092B52D8DFE813F0DC
:1025A000A50197015100B60151008A015F01510058
:1025B0005401E7002B78D9077FF54DAFFFF7B0FE48
:1025C00049E7EB78DA077FF546AF0898FFF79AFE00
:1025D00041E72B78D8077FF53EAF2878C0F3C000DD
:1025E000FFF79CFE37E79DF81C00FFF743FE00F065
:1025F000E7FB9DF82030AB702DE79DF81C00FFF73E
:1026000039FE00F0DDFBFFF787FE24E711D04FF025
:10261000E023D3F8F03DDC0700D500BE0BB0BDE8E9
:10262000F08F099B9DF821209DF81C0000F0E6FB2F
:1026300011E72B4B63E7FDF76DFF0246002840F0E2
:102640007C814FF0E023D3F8F03DDF0700D500BEDA
:102650009DF81C000021FFF7A1FD80219DF81C00C2
:10266000FFF79CFDF7E61F4800F0B4FB0121484648
:1026700008AAFFF7FDFD00287FF4EDAEE8E79DF81E
:10268000241011F0700FDCD1174B01F07F0818787F
:1026900007EB480303EBD11393F814C04FEA480843
:1026A00084454FEAD11350D340F06D810C4801901E
:1026B000002A00F06C81019F786900F08BFB0121FA
:1026C00048467B6908AA984700287FF4C4AEBFE754
:1026D000C015002068150020321B0020681400205F
:1026E000D43D001071220010301B0020401100204A
:1026F0009DF824300F2BABD8B04A3B441B7912789D
:1027000093422ED3A4D1AE4F786900F063FB012130
:1027100048467B6908AA984700287FF49CAE9DF83C
:10272000203013F0600793D19DF821300A3B012B34
:102730008ED800F04FFB9DF821300A2B00F0FB8172
:10274000484608A900F0CAFA85E69E48006800EBF2
:102750004C100190002A00F01A8100283FF478AF55
:10276000A9E7984A176817EB4317CDD170E77B7834
:102770009DF82280984500F05A817B78002B40F02C
:10278000C68187F80180B8F1000F00F04E8108F192
:10279000FF30C0B2FDF7BEFE0146002800F06481A4
:1027A0004378022B40F06081C2793878C2F340133D
:1027B0001B01C2F3801220F0300043EA42130343AE
:1027C0003B704B88CDF80C90CB1801930931019BDD
:1027D0008B4240F2AB814B780B2B00F0B6814FF06F
:1027E000010C042B40F040814FF00009019BC846CA
:1027F0005B1A9BB20293714BCDF810C01B781BE0A3
:10280000704B1B6813EB481300F02E81029A1B6972
:1028100003980591984708280246059909F101098E
:1028200003D9029B834280F00781644B5FFA89F8E9
:102830001B784345C0F018814345A8EB0303DFD85C
:102840005F4A02EB4313E1E77B7848468DF81A3084
:102850000DF11A02012308A900F05AFAFBE5BDF8B0
:102860002200030A013B020AC0B20E2B3FF6F0AE73
:1028700001A151F823F000BF992A00102929001066
:10288000D52A00105126001051260010B72A00103A
:102890002929001051260010512600105126001041
:1028A000512600105126001051260010512600100C
:1028B0008B2A001008A800F093FA48469DF82210D1
:1028C000FFF7B0FB3B7843F002033B70C3E5BDF874
:1028D0002230012B7FF4BCAE3B78484623F008033E
:1028E00008A93B7000F0FAF9B5E548463B789A082C
:1028F00002F00202C3F340131343ADF81A300DF196
:102900001A02022308A900F003FAA4E5BDF8223058
:10291000012B7FF49DAE3B78484643F0080308A99D
:102920003B7000F0DBF996E5022A3FF484AEFFF736
:10293000EFFC024600283FF48BAE4846538808A9B6
:1029400000F0E6F900287FF486AD81E69DF824309A
:102950000F2B3FF67DAE194A3B441B791278934208
:1029600027D2184A176817EB43173FF471AE7869FE
:1029700000F030FA012148467B6908AA98470028F0
:102980007FF469AD64E6002A7FF462AE01929DF89F
:1029900021C00CF0FD02012A16D0BCF1000F7FF41B
:1029A00050AEB844434493F834304846C3F3400330
:1029B000A3E77FF44DAE024FD9E700BF301B0020E4
:1029C000D43D001068140020BDF82220BAB9BCF133
:1029D000010F9AF8000000F085800293FFF7DEFBFC
:1029E000029BB844434493F8342042F0020283F837
:1029F000342093F8342042F0010283F83420019B04
:102A0000002B3FF428AD586900F0E4F9019B012147
:102A10005B6908AA48469847002000F0DBF997F860
:102A20003530DB073FF517AD8AE6FFF775FC484602
:102A300008A900F053F90EE5DDF810C0BCF1000F55
:102A400000F08980887800EB0C03DBB203E0984249
:102A50008CF804807FD007EB000C9CF804E0013078
:102A6000BEF1FF0FC0B2F2D04FF0E023D3F8F03D3B
:102A7000D90700D500BE4FF0E023D3F8F03DDA07C8
:102A800000D500BE00237B70E2E5FFF73DFC024667
:102A900000287FF452AFDBE5FDF734FD0246002845
:102AA0003FF4CFAD4846122308A900F031F90028C1
:102AB0007FF4D1ACCCE5FFF729FC024600283FF4B7
:102AC000C7AD4846137808A900F022F900287FF422
:102AD000C2ACBDE5BDF82410FDF720FD024600287C
:102AE000EFD1B5E5CDE90232FFF770FB029BB844A8
:102AF000434493F83410039A62F3410183F834108D
:102B000093F8341062F3000183F8341077E7002162
:102B10004846FFF78FFA4846FFF72AFBBB7848463E
:102B20000193FFF7A7FB019BBB702AE6DDF80C9031
:102B3000FFF7F0FB7BE74846012308A90DF11A02D5
:102B40008DF81A7000F0E4F885E40B7891F803C072
:102B500019444B7845E643460B480492029100F035
:102B600053FC0A4B02991B78049A43451144BFF465
:102B70002EAE79E74FF0E023D3F8F03DDB077FF589
:102B80006AAC00BE67E400BF7C150020301B00204B
:102B90002DE9F84F0A9F002A40D00C461E461546E4
:102BA0004FF0000ADFF87C90DFF87C8018E02046C8
:102BB00098F8021099F800B000F0F6FBE0B1214659
:102BC0005846FFF753FAF0B1A2780AF1010AD10989
:102BD00016BF0B9B3A701A702278AA4514441DD078
:102BE0006278052A0FD1E17801F00301B1420AD1E0
:102BF000A27812F0700FDAD04FF0E023D3F8F03D56
:102C0000DA0700D500BE4FF0E023D3F8F03DDB0734
:102C100002D40020BDE8F88F00BEFAE70120BDE82D
:102C2000F88F00BF40110020681500200B46064AAF
:102C300006481168DA09343203F07F0302EB4303DC
:102C4000184400F087BB00BFBC15002068150020A9
:102C500010B5194801F07F0C00EB4C0000EBD110CF
:102C600090F834C01CF0010F08D04FF0E023D3F8E7
:102C7000F03DDA0700D500BE002010BD00F13004A1
:102C800094F804C00D484CF0010C007884F804C09E
:102C9000FFF770FA0028F0D14FF0E021227960F3BD
:102CA00000022271227960F382022271D1F8F03D94
:102CB000DB07E1D500BEDFE76815002040110020EA
:102CC000054B01F07F0203EB420303EBD11191F8B6
:102CD000340000F0010070476815002030B50B4C3F
:102CE0008C46A6460546086849680023AEE80300FE
:102CF0009CF800102846C943C4E90233BDE83040BF
:102D00001A4601F08001FFF7A3BF00BFAC140020FA
:102D10002DE9F041284F4FF00008BE468C4606468C
:102D200008684968BA60AEE80300A7F80E80154647
:102D3000BCF80620934228BF1346BB819AB11C46BB
:102D400033B3DDB197F90030402C28BF4024002B6D
:102D500029DB414623463046184AFFF779FF68B120
:102D60000120BDE8F0819CF800101346C9433046AD
:102D700001F08001FFF76CFF0028F1D14FF0E02354
:102D8000D3F8F03DDB0700D500BE0020BDE8F081A0
:102D90001A46397801F0800123463046FFF758FF84
:102DA0000028DDD1EAE722462946044800F0C0FDAC
:102DB0008021024AF0E700BFAC1400206C14002010
:102DC0000022034BC3E90022C3E902221A617047C3
:102DD000AC140020014B1861704700BFAC140020F8
:102DE00030B40246044C0025234600685168C4E90B
:102DF000025530BC03C37047AC14002070B53D4C85
:102E0000C90922780646B1EBD21F1D4682B017D001
:102E100053B14FF0E023D3F8F03DDB0702D400209C
:102E200002B070BD00BEFAE72146FFF711F9236931
:102E30001BB12246032130469847012002B070BDE5
:102E400094F90030002B06DBA0680028E7D02A4662
:102E5000294900F06DFDE089A168E388284480B22B
:102E600029448342E081A16016D03F2D14D9A28964
:102E700094F90040131A9BB2402B28BF4023002C2A
:102E800027DB90424FF0000131D01B4A3046FFF75C
:102E9000DFFE0028D1D1BCE7236923B102213046EF
:102EA000144A984760B121780023C94330461A4636
:102EB00001F08001FFF7CCFE0028AAD00120BDE779
:102EC00001463046FFF76AF980213046FFF766F980
:102ED000B3E7904208D01A460748019300F028FD56
:102EE0008021054A019BD1E780210022CEE70A46D6
:102EF000CCE700BFAC1400206C140020704700BF6A
:102F000001207047704700BF704700BF10B50C4BE1
:102F100000EB400003EB80035C78FFF703FA08B98D
:102F2000002010BDFFF706FA0028F9D1002CF7D0D9
:102F30002146FFF7C5FE80F00100C0B210BD00BF02
:102F4000301500202DE9F04F81B09DF928909DF9B2
:102F50002C809DF9307018B1002001B0BDE8F08FD1
:102F6000DFF858A00D469AF8011016469B46044615
:102F7000FFF75CFE0028EFD06BF3070469F30F2422
:102F800068F3174467F31F646DB90523094A167483
:102F9000C2F811400020084A9AF8011001B0BDE8BB
:102FA000F04FFFF755BE034A062315745674C2F856
:102FB0001240EFE70015002010150020301500200A
:102FC0000022024BC3E900229A60704730150020AE
:102FD000012070470022024BC3E900229A6070472B
:102FE00030150020F0B54B7983B0032B11D191F847
:102FF00004C00C46CCEBCC051235ADB2954202D8DC
:10300000234F7A785AB14FF0E023D3F8F03DDA0736
:1030100003D40025284603B0F0BD00BEF9E70978C7
:10302000621892F801E0BEF1210FECD1BA60615C48
:1030300006461144624607F1010CCDF804C007F1C1
:10304000020CCDF800C0FFF7A3FD0028DBD0A37968
:10305000BA68012B08BFE379B2F8072008BFFB70FC
:103060000123BB71A378B978BA803B700029D1D015
:1030700010233046074AFFF7EBFD0028CAD14FF076
:10308000E023D3F8F03DDB07C4D500BEC2E700BFA4
:10309000301500202015002070B51446127882B03B
:1030A00002F01F0CBCF1010F13D1684EB4F804C03C
:1030B00033785FFA8CFC63450BD112F06002054651
:1030C0000AD1012902D0012002B070BD6378062B1D
:1030D00022D0002002B070BD202AFAD16378013BD3
:1030E0000A2BF6D801A252F823F000BFC731001016
:1030F000B7310010A7310010D3300010D3300010CA
:10310000D3300010D3300010D33000106D310010D8
:103110004F3100103931001063881B0A212B7DD0FC
:10312000222BD6D11046FDF7F1F921460246B3888D
:103130002846FFF7EDFDC6E7012912D00329C2D1C9
:1031400061880020C9B2B171FFF7D8FEBBE7012941
:10315000B9D161880020090AF171FFF7D1FE00287A
:10316000B7D021462846FFF7B9FDACE7012960D06A
:103170000329A8D1E08863881028044628BF1024BA
:1031800013F0FF014FEA1322314B07D0012805D974
:103190001878884202D1013CA4B201330020009487
:1031A000FDF7ACF98FE701298DD10B46294A21465D
:1031B000FFF7AEFD87E7012985D10B46264A214658
:1031C000FFF7A6FD7FE701297FF47DAFE6886388DE
:1031D000102EB44628BF4FF0100C13F0FF004FEA3A
:1031E000132230D0012E2ED90E46194B0CF1FF3C84
:1031F0001FFA8CFC03F8010B0146CDF800C000203B
:10320000FDF77EF933189BB2BBB94FF0E023D3F83A
:10321000F03DDB077FF55DAF00BE5AE7B268002ADC
:103220003FF457AF2146137802B0BDE87040FFF776
:103230006FBDE388102B3FF64CAF21462846044A69
:10324000FFF766FD3FE70026014BD5E7301500206C
:1032500000150020361500203715002070B50C46EB
:10326000204D114695F802C095F801E0A44582B0C2
:103270000BD0A6451FD04FF0E023D3F8F03DDB077D
:1032800000D500BE002002B070BDE6459CB213D050
:103290000646C1B902220846134B0094FDF72EF9E9
:1032A00010233046104AA978FFF7D2FC0028E2D05C
:1032B000012002B070BD9CB261B9084622460B499C
:1032C000FFF720FEF4E7234602210020064AFFF71D
:1032D0001BFEE5E7234601210020044AFFF714FE08
:1032E000E6E700BF30150020201500201015002053
:1032F00010B582B0C9B101280CD80B7853B1144C69
:10330000012B235402D0012002B010BDFFF71AF8A0
:103310000028F8D14FF0E023D3F8F03DDB0702D4CA
:10332000002002B010BD00BEFAE70124084601A942
:10333000ADF80440FFF706F838B94FF0E023D3F8B2
:10334000F03DDA07EDD500BEEBE7014B1C70E8E776
:103350005C150020F8B5037813F001041AD1037846
:1033600005465A07C3F3800701D52046F8BD0E462F
:103370004FF0FF31304600F0CFFB2B7813F0010403
:103380000BD12B785B0709D42B78012443F004037D
:103390002B7003E000242046F8BD3C46304600F088
:1033A000C7FB2046F8BD00BFC378828803F0030046
:1033B0000228C2F30A0215D003280AD001281CD122
:1033C000022940F2FF3308BF4FF4806393420DD3CC
:1033D0007047022914BF40234FF48063934205D302
:1033E0000120704702290AD0402AF9D94FF0E02382
:1033F000D3F8F03DDB0700D500BE00207047B2F5E2
:10340000007FEDD0F2E700BF0A44914226D291F846
:1034100001C0BCF1050F05D091F800C061448A429B
:10342000F5D8704700B591F802C00CF07F0E00EBA4
:103430004E0E4FEADC1C0EF80C3091F800C06144CF
:103440008A4209D991F801C0BCF1050FEBD091F87F
:1034500000C061448A42F5D85DF804FB704700BFA4
:1034600038B5044600690D4618B14FF0FF3100F041
:1034700053FB2189638989B29BB2A288994236BFE6
:10348000C3EB4200C81A401880B250B3824209D23E
:1034900091422CBF891A89188BB29A42638103D852
:1034A0009B1A9BB29A42FBD9E2882168C2F30E02B2
:1034B00002FB0311284600F03BFA6189012589B21D
:1034C0004B1C9BB29942A2880ED9002302FA05F147
:1034D0005B1A9BB22069638108B100F029FB284682
:1034E00038BD054663899BB2B3EB420F4FEA4201F8
:1034F000F0DBEDE7F8B50446C0680E4618B14FF0B2
:10350000FF3100F009FB2589238961899BB289B2CB
:10351000A2888B4236BFC1EB42015B1A5B189BB29B
:103520009A42ADB208D8E779FF0905D1E06808B141
:1035300000F0FEFA3846F8BD954228BF2B4618D356
:103540009B1A9BB29342FBD2E2882068C2F30E0220
:1035500002FB0300314600F0EBF96B1C9BB29D426D
:10356000A28812D9002351005B1A9BB20127238144
:10357000DCE7E2882068C2F30E0205FB0200314658
:1035800000F0D6F90135A288ABB2B3EB420F4FEA97
:103590004201EBDBE8E700BF10B50446C06818B194
:1035A0004FF0FF3100F0B8FA206918B14FF0FF3149
:1035B00000F0B2FA0023E0686381238108B100F0D3
:1035C000B7FA206908B100F0B3FA012010BD00BFBE
:1035D00010B51920FCF7F4FF1923012242EC443006
:1035E000054C0648134620600022BDE810404FF409
:1035F000E131FEF7A7BC00BF281B002000000740F8
:1036000000B545F247308BB0FEF700F901220346C2
:10361000092101A89847DDE90332044912BA1BBA0F
:10362000C1E900230BB05DF804FB00BF181B0020AC
:103630002DE9F0470F460546FCF7FEFF012297F8FB
:1036400004A097F905C005F12F4EDFF8D4800EF5E0
:10365000600E02FA0AF24FEA1E5EBCF1000F58F843
:103660002E6002F1FF32CAF1200435DBA44503DCF1
:1036700002FA0CF3334206D04FF0FF34FCF7EEFFB2
:103680002046BDE8F087D5F86831F979002B41D1A3
:103690004B0731D4644602FA0CF2164233D1396832
:1036A000BAF1000F10D0674601EB4A0A31F8023B2D
:1036B00007F11209B3F5005F38BF6344514507F1C4
:1036C000010745F82930F1D1324348F82E20FCF7A4
:1036D000C5FF2046BDE8F087002C02DA13E0013C6C
:1036E00011D302FA04F33342A446F8D1D5F8681195
:1036F000FB7991B95B07CED56FF00A04FCF7AEFFFA
:103700002046BDE8F0876FF00804FCF7A7FF2046CD
:10371000BDE8F087C907BDD5EEE7D907BBD5EBE714
:10372000841600202DE9F041D0F868419DF818601A
:10373000121B1F2A38D84EF29F044EF280054FF418
:10374000003801EB410C002E18BF254600EBCC04DD
:1037500004F5435400EBCC0C052BDCF8DC704FEA8D
:10376000410EDCF8CC60C4F80C800CD95401053B48
:1037700044F0A0540532052BCCF8DC4002F01F02C7
:10378000CCF8D850F2D8714400EBC10100205201AE
:1037900042EA8363C1F8DC30C1F8D850C1F8DC706C
:1037A000C1F8CC60BDE8F0816FF00400FAE700BF1B
:1037B000F0B5012504688D4024EA05040460B3B324
:1037C000D3E901561F68DC6801EB410300EBC3033A
:1037D000C3F8C8704FEA410CC3F8D060C3F8CC50AE
:1037E000C3F8DC400CEB01034FF0013500EBC30CD8
:1037F0004FF0004600EBC30E01230EF5865E0C1D54
:1038000001F108078D40CEF8106003FA04F4CEF8F9
:10381000106002F01F028560BB4000F5005004609C
:103820000EF1100E03600020CCF8D820F0BD4FF44C
:1038300080374FF440264FF4F83501EB410400EB9C
:10384000C404C4F8C8704FEA410CC4F8D060C4F88E
:10385000CC50C4F8DC30C5E7002301461A461846B0
:1038600000F00AB9830730B546D08418844604E0D6
:1038700003F8011B9D0704D09C46A4456346F7D17D
:1038800030BD013A0244A2EB0C02032A29D9CCB282
:103890000F2A04EB042404EB04442FD9A2F1100CEA
:1038A00003F110052CF00F0CAC44C3E90044C3E94C
:1038B000024410336345F8D112F00C0F02F00F0EE2
:1038C00018D02EF0030CAEF104051A469C4442F8C1
:1038D000044B6245FBD125F0030404330EF00302D0
:1038E0002344002ACCD0C9B21A4403F8011B9342E6
:1038F000FBD130BD7246F4E70346C6E79646E0E7E3
:1039000038B5074D074C2C1BA41005D0013C55F8C9
:10391000043D9847002CF9D1BDE8384000F0F8B8D4
:10392000AC3B0010AC3B0010704700BF704700BFBD
:10393000844641EA000313F0030349D1403A23D3FC
:103940000B6803604B6843608B688360CB68C3601F
:103950000B6903614B6943618B698361CB69C36107
:103960000B6A03624B6A43628B6A8362CB6AC362EF
:103970000B6B03634B6B43638B6B8363CB6BC363D7
:1039800040304031403ADBD230320BD30B68036019
:103990004B6843608B688360CB68C3601030103124
:1039A000103AF3D20C3205D351F8043B40F8043BF3
:1039B000043AF9D2043208D0D2071CBF11F8013BF7
:1039C00000F8013B01D30B8803806046704700BFBD
:1039D000082A13D38B07B1D010F00303AED0C3F184
:1039E0000403D21ADB071CBF11F8013B00F8013BAE
:1039F000A4D331F8023B20F8023B9FE7043AD9D325
:103A0000013A11F8013B00F8013BF9D20B78037041
:103A10004B7843708B7883706046704720F00301C9
:103A200010F00300C0F1000051F8043B00F1040C59
:103A30004FEACC0C6FF000021CBF22FA0CF21343C9
:103A40004FF0010C4CEA0C2C4CEA0C4CA3EB0C0292
:103A500022EA030212EACC1204BF51F8043B0430FC
:103A6000F4D0C2F1000102EA0102B2FA82F2C2F11C
:103A70001F0200EBD20070472DE9F8431C4D0646AB
:103A800098460F4628689146FFF74EFF194B1C6871
:103A90002CB3286865681F2D24DC4EB96B1C0235D9
:103AA000636044F82570FFF741FF0020BDE8F8830C
:103AB00004EB85010123022EC1F8889003FA05F377
:103AC000D4F8882142EA0302C4F88821C1F80881A9
:103AD000E4D1D4F88C211A43C4F88C21DEE7064CDB
:103AE0001C60D6E7FFF722FF4FF0FF30DEE700BF94
:103AF00044110020D0120020D4120020024B13B138
:103B00000248FFF7A9BE704700000000013900100D
:103B1000F8B500BF000000005FF800F0E5010020EC
:103B20005FF800F0BD0A00205FF800F0750D00207E
:103B30005FF800F01D0200205FF800F01D0A002071
:103B40005FF800F0590200205FF800F0790A0020C9
:103B50005FF800F07D0100205FF800F0450A0020CA
:103B600041190010B5180010E9180010D5190010FF
:103B700021190010391800106919001025180010BB
:103B8000190D00106D190010C910001085180010D3
:103B9000551900100519001081070010A907001021
:0C3BA000FD3A001001360010E901001091
:103BAC00B43B001004FF000021632312001242A258
:103BBC005261737062657272792050690000000066
:103BCC0052503233353020484944204D6F7573655F
:103BDC00204A6967676C6572000000003635343323
:103BEC00323100000A2A2A2A2050414E4943202A09
:103BFC002A2A0A000A0000004E6F207370696E6C4E
:103C0C006F636B732061726520617661696C6162B0
:103C1C006C650000486172647761726520616C614B
:103C2C00726D20256420616C726561647920636C0F
:103C3C0061696D6564000000486172642061737392
:103C4C006572740052656C6561736500626F6F74A8
:103C5C00325F77323571303830000000322E322E20
:103C6C00300000007069636F320000006D696E698E
:103C7C007573625F686964004D6179203238203257
:103C8C0030323600556E68616E646C656420495242
:103C9C005120307825780A00657020253032582064
:103CAC0077617320616C72656164792061766169FA
:103CBC006C61626C6500000043616E277420636F59
:103CCC006E74696E75652078666572206F6E2069FA
:103CDC006E616374697665206570202530325800FA
:103CEC004C4544000904000009022200010100A017
:103CFC003209040000010301020009211101000135
:103D0C00224D000705810310000A0000050109027D
:103D1C00A1010901A10005091901290515002501B9
:103D2C009505750181029501750381010501093025
:103D3C0009311581257F9502750881060938158191
:103D4C00257F950175088106050C0A380215812519
:103D5C007F950175088106C0C000000012010002A9
:103D6C0000000040FECA01400001010203010000F6
:103D7C0006005250D3F07542503C001006005250D1
:103D8C00E182887F583C001006005250ABB3605360
:103D9C00683C001006005250BBFF3CB6703C001053
:103DAC0006005250861C0302783C0010060052504C
:103DBC005422A29D843C001005005250DE65F4682C
:103DCC00884E00100D0A000000000000C12F0010EA
:103DDC00D12F0010D52F0010E52F001099300010B6
:103DEC005D3200100000000009005250000000027B
:0C3DFC00EC3C00100800525012100200B5
:083E080028FBFF7F0100000010
:103E10007C3D0010883D0010943D0010A03D001036
:103E2000AC3D0010B83D0010C43D0010003E001035
:043E3000F43D00104D
:103E34004FF050412DE9F0410027044616461D4637
:103E4400D1F8008008E0C1E88F7F8CF310883046F9
:103E5400294600F09DFFE8B92168EFF3108C72B693
:103E6400D1E8CF2F0123002AFAD1C1E8423F002A2A
:103E7400F6D1BFF35F8F94F904302168002BE2DAA6
:103E8400002384F80480C1E88F3F8CF3108801205C
:103E9400BDE8F0810020BDE8F08100BF30B50468C2
:103EA400EFF3108C72B6D4E8CFEF0125BEF1000F0A
:103EB400F9D1C4E84E5FBEF1000FF4D1BFF35F8FB8
:103EC40090F904400568002C10DB0021C5E88F1F21
:103ED4008CF310884FF0504595F90050A54201D15C
:103EE400084630BDBDE83040FFF7A2BF4FF0504256
:103EF400126800230271C5E88F3F8CF310880120FB
:103F040030BD00BF70B505460C4600F03DFF0246CB
:103F14000B464FF47A704FF0FF3E6FF0004CE4FB19
:103F2400002396457CEB030138BF72462846BDE862
:103F3400704038BF6346FFF77BBF00BF0368EFF3F1
:103F4400108272B6D3E8CFCF0121BCF1000FF9D1B2
:103F5400C3E84C1FBCF1000FF4D1BFF35F8F4FF0E7
:103F6400FF0C0023016880F804C0C1E88F3F82F38E
:103F7400108840BF704700BF002108B5134B4FF4B1
:103F8400707299601248D960196159619961D96157
:103F9400196259629962D962196359639963D96341
:103FA400196459649964D964196559659965D96521
:103FB400196659669966D966196759679967D96701
:103FC40000F0EEFE034B044A1A6008BD00001050D6
:103FD40014170020DC1A0020800110502DE9F04F46
:103FE4001F4B85B0D3F858A0BAF1000F22D000249B
:103FF40001254FF4E069DFF870801A4F01E0202CAE
:1040040018D00AEA0502611C2346AB46CCB26D0007
:10401400002AF4D004F0010203F0FE06164407EB74
:1040240046163046C8F858B000F00AFC28B93AEAF7
:104034000B0AE4D105B0BDE8F08F00238DF80930F8
:10404400B37801A88DF80830F38A0121ADF8049003
:10405400039300F013FC304600F098FBE7E700BF41
:1040640000001150D416002000301150F0B5BB4BA5
:1040740085B0D3F8985015F4003674D0B84BB94CC9
:10408400996A94F83B30B84A022B116000F0D4804E
:10409400002694F87B30022B00F03B8194F8BB306F
:1040A400022B00F07D8194F8FB30022B00F06C8130
:1040B40094F83B31022B00F0448194F87B31022BBD
:1040C40000F0338194F8BB31022B00F0B68194F8F0
:1040D400FB31022B00F0A68194F83B32022B00F056
:1040E400968194F87B32022B00F0868194F8BB32DF
:1040F400022B00F0768194F8FB32022B00F06681EB
:1041040094F83B33022B00F0568194F87B33022B56
:1041140000F0A48094F8BB33022B00F0998194F84A
:10412400FB33022B00F0B4803EB9904B1B7823B9CB
:104134004FF400328E4BC3F890204FF44072874BFB
:1041440001219B6C01A8C3F30A03ADF80420029378
:1041540000F094FBEA064FF40036864C07D5FFF7CF
:104164003DFF264603E0EA064FF01004F7D4EB03C4
:1041740022D57C4C46F48036A37E002B40F09980F7
:10418400012394F83A20E370002A40F0AD80012323
:104194004FF4C061784A84F82330ADF8041092E8F3
:1041A400030004AA02E90300194601A800F066FB13
:1041B4004FF400326E4B1A65E90408D46A041DD426
:1041C4002B042AD4AE4240F0C58105B0F0BD0024D2
:1041D400624B46F480561C60FFF7CEFE4FF48073AA
:1041E400012101A8ADF804308DF8084000F046FB29
:1041F4004FF400225E4B1A656A04E1D54FF48063E4
:10420400012101A8ADF8043000F038FB1022584B0E
:1042140046F480461A652B04D4D54FF4A0630121DB
:1042240001A8ADF8043000F029FB4FF40062504BB4
:1042340046F400461A65C5E794F83A60002E3FF448
:1042440028AF94F83C30002B3FF423AF002304F153
:10425400200084F83C3000F0C1FA1AE794F87A732D
:10426400002F3FF457AF94F87C33002B40F0648167
:1042740094F8BB33022B40F0F48094F8BA33002B4B
:1042840040F0EB8094F8FB33022B7FF456AF3E46AC
:1042940094F8FA33002B3FF447AF94F8FC33002B27
:1042A4003FF44BAF0023354884F8FC3300F096FA12
:1042B40043E70221324B294A1966536E9F07FCD506
:1042C4004FF440520021274800F066FA254800F0D8
:1042D4005DFA0222264B5A661A66012394F83A20A4
:1042E400E370002A3FF453AF254A1366A2F5005247
:1042F400536ED807FCD54FF440520021214800F0FA
:104304004BFA204800F042FA0122194B5A661A6609
:104314003DE794F87A70002F3FF4C0AE94F87C30F7
:10432400002B40F001813E46B8E694F87A71002FE4
:104334003FF4C8AE94F87C31002B40F0ED803E464B
:10434400C0E694F83A71002F3FF4B7AE94F83C31CC
:10435400002B40F0D9803E46AFE600BF000011506C
:1043640000000B40D4160020CC160020311B002086
:10437400003011501000020000001050B41A002048
:1043840000201150F416002094F8FA70002F3FF426
:104394008FAE94F8FC30002B40F08E803E4687E6CA
:1043A40094F8BA70002F3FF47EAE94F8BC30002B22
:1043B4007AD13E4677E694F83A73002F3FF4A5AEDF
:1043C40094F83C33002B57D13E469EE694F8FA729B
:1043D400002F3FF495AE94F8FC32002B5CD13E469E
:1043E4008EE694F8BA72002F3FF485AE94F8BC328E
:1043F400002B49D13E467EE694F87A72002F3FF4B2
:1044040075AE94F87C32002B76D13E466EE694F875
:104414003A72002F3FF465AE94F83C32002B63D11E
:104424003E465EE694F8FA71002F3FF455AE94F8D8
:10443400FC31002B50D13E464EE694F8BA71002F61
:104444003FF445AE94F8BC31002B3DD13E463EE6E8
:1044540094F8BA33002B3FF462AE94F8BC33002BCB
:1044640071D194F8FB33022B7FF467AE94F8FA33DE
:10447400002B3FF462AE10E70023394884F83C3344
:104484003E4600F0ABF940E60023364884F8BC32DF
:104494003E4600F0A3F92EE60023334884F8FC32AC
:1044A4003E4600F09BF92BE60023304884F8BC30EC
:1044B4003E4600F093F9F6E500232D4884F8FC30DD
:1044C4003E4600F08BF9F3E500232A4884F8BC311A
:1044D4003E4600F083F9FAE50023274884F8FC31CE
:1044E4003E4600F07BF9F7E50023244884F83C328B
:1044F4003E4600F073F9F4E50023214884F87C3249
:104504003E4600F06BF9F1E500231E4884F83C3187
:104514003E4600F063F9D0E500231B4884F87C3163
:104524003E4600F05BF9CDE50023184884F87C3062
:104534003E4600F053F9B1E50023154884F87C3376
:1045440000F04CF994E60023124884F8BC3300F0E0
:1045540045F986E7104886EA050100F025FC00BF0E
:10456400F419002074190020B419002074170020D5
:10457400B417002074180020B4180020F418002088
:1045840034190020F41700203418002034170020B8
:10459400341A0020741A0020903C00102DE9F047D2
:1045A400848A058BC278A54228BF2546171E18BFEA
:1045B4000127641B467882F00102A4B20346C2704C
:1045C400848245F4806040EA4730A6BBD3E90326E1
:1045D4006F1E02EB811E55B3052F98BF721C31D993
:1045E40002EB811C721CACEB0204022C2AD9324669
:1045F4004FEA95094FEA890A06EB890852F8044BF9
:1046040042454CF8044BF9D15545A7EB0A070EEB8C
:104614000A040AD016F829600EF829602FB15678DA
:10462400012F667001D09278A2701E699C8A2E4474
:104634001E6140F400400CB940F4804001B1000414
:10464400BDE8F0870EF1FF3E2E4400E0013212F87F
:10465400014CB2420EF8014FF8D1E6E783680246F6
:10466400186801B1000C5378C0F30900002B3CD04A
:104674002DE9F041D2E90334461E03EB811E40B319
:10468400052E3BD989014D1C1D44651B022D35D9CE
:104694007346214600F47F774FEA9008FD1853F8DB
:1046A40004CBAB4241F804CBF9D1B842A6EB0706E0
:1046B40004EB07030EEB07010AD01EF8285004F898
:1046C40028502EB14C78012E5C7001D089789970F5
:1046D4001469D38A04440344D382138B1461834240
:1046E40084BF00239382BDE8F081D38A0344D3823C
:1046F400138B834284BF002393827047013C0EEBEB
:1047040000011EF8013B714504F8013FF9D1DFE7D0
:1047140010B50446836800211B68FFF79FFF636898
:104724001B685B0002D5238B834200D010BD20465A
:10473400BDE810400121FFF791BF00BF084B1B6C7F
:1047440013F0020302D18278D20901D1002070470C
:10475400C07EA0F10200B0FA80F04009704700BFAB
:104764000000115008B5FFF7E9FF50B1054A064BA8
:10477400906A1B68A0F54870C01AC6288CBF002038
:10478400012008BD00000B40CC1600200023C0E926
:1047940004338376704700BF10B5836809B11C6881
:1047A400214082B1114352050DD51A6854050CD429
:1047B400084A21F480641C60126C920703D40C2311
:1047C400033BFDD28368196010BD8178024800F074
:1047D400EBFA00BF00001150A43C001030B5436850
:1047E400002183B004461D68FFF7D8FE134B40F444
:1047F4008052196CA37889070ED55B060ED025F07C
:10480400A04545F000550021204663681D6003B0B3
:10481400BDE83040FFF7C0BFDB09F0D0A38A002B0E
:10482400EDD0012120460192FFF7B8FE019A25F050
:104834000055024345F0A045E5E700BF00001150D4
:1048440038B5857E044695B1FFF762FFA38A0BB99C
:10485400284638BD2046FFF785FF20B10123237782
:104864000025284638BD2046FFF7B8FFF8E78178D1
:10487400014800F099FA00BFC43C00102DE9F04350
:1048840043780446023B0D4685B0042B13D8DFE879
:1048940003F00348677042000021784B1A7822F035
:1048A40001021A701A7822F002021A7059701A78EA
:1048B40061F382021A70724B1E687369EFF31082FF
:1048C40072B6D3E8CF0F01210028FAD1C3E8401F04
:1048D4000028F6D1BFF35F8FB2612146304600F065
:1048E40067FA00237269C2E88F3FB36983F31088C3
:1048F40048B94FF0E023D3F8F03DDB0708D500BEFC
:1049040005B0BDE8F0832A466178207800F044FAC7
:1049140005B0BDE8F0835B4A13780133DBB2137052
:10492400C9E74FF00009584E4B463178DFF86081F3
:10493400564F0FE03A6812EB431305D0DB691BB105
:10494400616820789847317809F101095FFA89F3A1
:104954008B4217D89942EDD85B1A08EB4313EDE765
:10496400464B1A78D707D3D51A7842F004021A7046
:10497400A1E7424B1A78D607CAD51A7822F0040266
:104984001A7098E73D4E3378580737D4F378DA072E
:10499400BED5032300273A4A2178166862688DF849
:1049A40004108DF805307369CDF80670CDF80A70DF
:1049B400ADF80E700292EFF3108272B6D3E8CF0F07
:1049C40001210028FAD1C3E8401F0028F6D1BFF323
:1049D4005F8F3046B26101A900F0EAF97369C3E858
:1049E4008F7FB36983F31088002882D02A469DF80C
:1049F40005109DF8040000F0CFF989E733784FF0F3
:104A0400000823F00403337005231D4A8DF8053094
:104A140017682278ADF80E808DF804207B69CDF8F4
:104A24000680CDF80A80EFF3108272B6D3E8CF0F78
:104A340001210028FAD1C3E8401F0028F6D1BFF3B2
:104A44005F8F3846BA6101A900F0B2F97B69C3E807
:104A54008F8FBB6983F3108838B94FF0E023D3F804
:104A6400F03DD90792D500BE90E72A469DF805107F
:104A74009DF8040000F090F988E700BF6815002055
:104A8400C0150020321B0020301B002068140020B9
:104A9400D43D001053B94AB9002908BF00281CBFEF
:104AA4004FF0FF314FF0FF3000F06AB9ADF1080C60
:104AB4006DE904CE00F006F8DDF804E0DDE9022338
:104AC40004B070472DE9F0478C468E46089E154683
:104AD40004461946002B40F0D080724547D9B2FAFB
:104AE40082F74FB1C7F120030EFA07FCBD40BC406A
:104AF40020FA03F343EA0C0C4FEA154EA8B2230C38
:104B0400BCFBFEF80EFB18CC08FB00F943EA0C438F
:104B1400994528D9EB1808F1FF3204D2994502D9F6
:104B2400A8F102022B44A3EB0903A4B2B3FBFEFCDD
:104B34000EFB1C330CFB00F044EA0344A04214D9DE
:104B44002C190CF1FF3304D2A04202D9ACF10203B8
:104B54002C44241A43EA02401EB1FC400023346072
:104B64007360BDE8F0874246DDE76346F1E7002A5B
:104B740079D0B2FA82F3002B3FD01946C1F1200359
:104B840002FA01F500FA01F42EFA03F20EFA01FE1C
:104B940020FA03F3AFB243EA0E034FEA154EB2FB19
:104BA400FEFC0EFB1C201A0C0CFB07F842EA004228
:104BB40090455AD9AA180CF1FF3004D2904502D975
:104BC400ACF102002A44A2EB08029BB2B2FBFEFC49
:104BD4000EFB1C220CFB07F743EA02439F4246D913
:104BE400EB180CF1FF3204D29F4202D9ACF102025D
:104BF4002B44DB1B42EA004202E0AEEB020301223B
:104C04004FEA154EAFB2200CB3FBFEFC0EFB1C3377
:104C14000CFB07F840EA034398452AD9EB180CF13A
:104C2400FF3004D2984502D9ACF102002B44A3EB27
:104C34000803A4B2B3FBFEFC0EFB1C330CFB07F70A
:104C440044EA0344A74216D92C190CF1FF3304D2C9
:104C5400A74202D9ACF102032C44E41B43EA00400E
:104C64000F46114678E71F2188E76046ABE76246A6
:104C7400BFE76046DBE76346EFE7734506D916B93D
:104C8400002108466DE7C6E9000EF9E7B3FA83F799
:104C940087B9734501D3824207D8841A6EEB0303A4
:104CA40001209C461EB900215BE73846FAE7C6E9B5
:104CB400004CF8E7C7F1200CBB4000FA07F422FAD5
:104CC4000CF520FA0CF1BA401D432EFA0CF30EFA3F
:104CD40007FE4FEA154941EA0E011FFA85FEB3FBB0
:104CE400F9F809FB18300B0C08FB0EFA43EA0043F1
:104CF4009A4540D9EB1808F1FF3004D29A4502D9FD
:104D0400A8F102002B44A3EB0A0389B2B3FBF9F820
:104D140009FB183308FB0EFE41EA03418E452CD9EA
:104D2400691808F1FF3304D28E4502D9A8F10203B1
:104D3400294443EA0040A1EB0E01A0FB029841453F
:104D4400CE46434602D306D14C4504D20138B9EBD2
:104D5400020E68EB0503002EA5D0B4EB0E0261EB46
:104D6400030101FA0CFC22FA07F3F9404CEA0303AD
:104D7400C6E9003197E74046C5E74346D9E7000056
:104D8400704700BF000000005FF800F0F514001049
:104D94005FF800F0ED1300105FF800F0012300103D
:104DA4005FF800F0653800105FF800F009060010A5
:104DB4005FF800F0F5340010F03C0010BC3B00102C
:104DC400CC3B0010E83B0010100000000000000085
:104DD40000000100000000000000000000000200CC
:104DE40000000000000000000000030000000000BC
:104DF400000000000000FF000000000001B548684A
:104E040001318E460047704609380149884701BD83
:104E1400510C001000000000000000000000000021
:104E2400000000000000000050110020A51D00102B
:104E3400AD1E0010F51D0010BD1E00100000000086
:104E440000010000C415002010000C000000000048
:104E5400000000000000000000000000000000004E
:104E6400FF000000641400200000000000000000A7
:104E7400D3DEFFFFFE010000FF010000C4B2FFFF0C
:044E8400793512ABBF
:040000051000014D99
:00000001FF
